{"client/Contracts/DAO.sol":{"Dao":{"abi":[{"inputs":[{"internalType":"uint256","name":"_participationTimeEnd","type":"uint256"},{"internalType":"uint256","name":"_voteTime","type":"uint256"},{"internalType":"uint256","name":"_quorum","type":"uint256"}],"stateMutability":"nonpayable","type":"constructor"},{"inputs":[{"internalType":"address","name":"to","type":"address"}],"name":"allow","outputs":[],"stateMutability":"nonpayable","type":"function"},{"inputs":[],"name":"availableFunds","outputs":[{"internalType":"uint256","name":"","type":"uint256"}],"stateMutability":"view","type":"function"},{"inputs":[],"name":"contribution","outputs":[],"stateMutability":"payable","type":"function"},{"inputs":[{"internalType":"string","name":"projectName","type":"string"},{"internalType":"uint256","name":"amount","type":"uint256"},{"internalType":"address payable","name":"recepient","type":"address"}],"name":"createProposal","outputs":[],"stateMutability":"nonpayable","type":"function"},{"inputs":[{"internalType":"address","name":"to","type":"address"}],"name":"disallow","outputs":[],"stateMutability":"nonpayable","type":"function"},{"inputs":[{"internalType":"uint256","name":"proposalId","type":"uint256"}],"name":"executeProposal","outputs":[],"stateMutability":"nonpayable","type":"function"},{"inputs":[],"name":"investorList","outputs":[{"internalType":"address[]","name":"","type":"address[]"}],"stateMutability":"view","type":"function"},{"inputs":[{"internalType":"uint256","name":"","type":"uint256"}],"name":"investorsList","outputs":[{"internalType":"address","name":"","type":"address"}],"stateMutability":"view","type":"function"},{"inputs":[{"internalType":"address","name":"","type":"address"}],"name":"isInvestor","outputs":[{"internalType":"bool","name":"","type":"bool"}],"stateMutability":"view","type":"function"},{"inputs":[{"internalType":"address","name":"","type":"address"},{"internalType":"uint256","name":"","type":"uint256"}],"name":"isVoted","outputs":[{"internalType":"bool","name":"","type":"bool"}],"stateMutability":"view","type":"function"},{"inputs":[],"name":"manager","outputs":[{"internalType":"address","name":"","type":"address"}],"stateMutability":"view","type":"function"},{"inputs":[],"name":"nextProposalId","outputs":[{"internalType":"uint256","name":"","type":"uint256"}],"stateMutability":"view","type":"function"},{"inputs":[{"internalType":"address","name":"","type":"address"}],"name":"numOfShares","outputs":[{"internalType":"uint256","name":"","type":"uint256"}],"stateMutability":"view","type":"function"},{"inputs":[],"name":"participationTimeEnd","outputs":[{"internalType":"uint256","name":"","type":"uint256"}],"stateMutability":"view","type":"function"},{"inputs":[],"name":"proposalList","outputs":[{"components":[{"internalType":"uint256","name":"id","type":"uint256"},{"internalType":"string","name":"projectName","type":"string"},{"internalType":"uint256","name":"amount","type":"uint256"},{"internalType":"address payable","name":"recepient","type":"address"},{"internalType":"uint256","name":"votes","type":"uint256"},{"internalType":"uint256","name":"end","type":"uint256"},{"internalType":"bool","name":"isExecuted","type":"bool"}],"internalType":"struct Dao.proposal[]","name":"","type":"tuple[]"}],"stateMutability":"view","type":"function"},{"inputs":[{"internalType":"uint256","name":"","type":"uint256"}],"name":"proposals","outputs":[{"internalType":"uint256","name":"id","type":"uint256"},{"internalType":"string","name":"projectName","type":"string"},{"internalType":"uint256","name":"amount","type":"uint256"},{"internalType":"address payable","name":"recepient","type":"address"},{"internalType":"uint256","name":"votes","type":"uint256"},{"internalType":"uint256","name":"end","type":"uint256"},{"internalType":"bool","name":"isExecuted","type":"bool"}],"stateMutability":"view","type":"function"},{"inputs":[],"name":"quorum","outputs":[{"internalType":"uint256","name":"","type":"uint256"}],"stateMutability":"view","type":"function"},{"inputs":[{"internalType":"uint256","name":"amount","type":"uint256"}],"name":"redeemShares","outputs":[],"stateMutability":"nonpayable","type":"function"},{"inputs":[],"name":"totalShares","outputs":[{"internalType":"uint256","name":"","type":"uint256"}],"stateMutability":"view","type":"function"},{"inputs":[{"internalType":"uint256","name":"amount","type":"uint256"},{"internalType":"address","name":"to","type":"address"}],"name":"transferShares","outputs":[],"stateMutability":"nonpayable","type":"function"},{"inputs":[{"internalType":"uint256","name":"proposalId","type":"uint256"}],"name":"voteProposal","outputs":[],"stateMutability":"nonpayable","type":"function"},{"inputs":[],"name":"voteTime","outputs":[{"internalType":"uint256","name":"","type":"uint256"}],"stateMutability":"view","type":"function"},{"inputs":[],"name":"withdrawAllEther","outputs":[],"stateMutability":"nonpayable","type":"function"},{"inputs":[{"internalType":"address","name":"","type":"address"}],"name":"withdrawalStatus","outputs":[{"internalType":"bool","name":"","type":"bool"}],"stateMutability":"view","type":"function"}],"evm":{"bytecode":{"linkReferences":{},"object":"60806040523480156200001157600080fd5b50604051620031793803806200317983398181016040528101906200003791906200010c565b60008111801562000049575060648111155b6200005357600080fd5b824262000061919062000197565b600881905550814262000075919062000197565b600a8190555080600b8190555033600c60006101000a81548173ffffffffffffffffffffffffffffffffffffffff021916908373ffffffffffffffffffffffffffffffffffffffff160217905550505050620001d2565b600080fd5b6000819050919050565b620000e681620000d1565b8114620000f257600080fd5b50565b6000815190506200010681620000db565b92915050565b600080600060608486031215620001285762000127620000cc565b5b60006200013886828701620000f5565b93505060206200014b86828701620000f5565b92505060406200015e86828701620000f5565b9150509250925092565b7f4e487b7100000000000000000000000000000000000000000000000000000000600052601160045260246000fd5b6000620001a482620000d1565b9150620001b183620000d1565b9250828201905080821115620001cc57620001cb62000168565b5b92915050565b612f9780620001e26000396000f3fe60806040526004361061014b5760003560e01c806350520b1f116100b6578063a9ed9cb81161006f578063a9ed9cb814610479578063adba9804146104a2578063bcf93dd6146104cb578063cee2a9cf146104f6578063f168e7c414610533578063ff9913e81461055e5761014b565b806350520b1f146103785780636a907803146103825780636ac1e01f146103bf578063807896d5146103e85780638ee36f0514610411578063a1f8adac1461044e5761014b565b806331c911171161010857806331c911171461028c5780633a98ef39146102a357806344389524146102ce57806345579b1f146102f957806346fcff4c14610322578063481c6a751461034d5761014b565b8063013cf08b14610150578063059fc354146101935780630d61b519146101d05780631703a018146101f95780632ab09d14146102245780632ccc87271461024f575b600080fd5b34801561015c57600080fd5b5061017760048036038101906101729190611d2f565b610587565b60405161018a9796959493929190611e57565b60405180910390f35b34801561019f57600080fd5b506101ba60048036038101906101b59190611f0b565b61067e565b6040516101c79190611f38565b60405180910390f35b3480156101dc57600080fd5b506101f760048036038101906101f29190611d2f565b61069e565b005b34801561020557600080fd5b5061020e610894565b60405161021b9190611f53565b60405180910390f35b34801561023057600080fd5b5061023961089a565b6040516102469190611f53565b60405180910390f35b34801561025b57600080fd5b5061027660048036038101906102719190611d2f565b6108a0565b6040516102839190611f7d565b60405180910390f35b34801561029857600080fd5b506102a16108df565b005b3480156102af57600080fd5b506102b8610a59565b6040516102c59190611f53565b60405180910390f35b3480156102da57600080fd5b506102e3610a5f565b6040516102f0919061216d565b60405180910390f35b34801561030557600080fd5b50610320600480360381019061031b919061218f565b610c56565b005b34801561032e57600080fd5b50610337610ff4565b6040516103449190611f53565b60405180910390f35b34801561035957600080fd5b50610362610ffa565b60405161036f9190611f7d565b60405180910390f35b610380611020565b005b34801561038e57600080fd5b506103a960048036038101906103a49190611f0b565b6111ec565b6040516103b69190611f53565b60405180910390f35b3480156103cb57600080fd5b506103e660048036038101906103e19190612330565b611204565b005b3480156103f457600080fd5b5061040f600480360381019061040a9190611d2f565b611411565b005b34801561041d57600080fd5b506104386004803603810190610433919061239f565b611678565b6040516104459190611f38565b60405180910390f35b34801561045a57600080fd5b506104636116a7565b604051610470919061249d565b60405180910390f35b34801561048557600080fd5b506104a0600480360381019061049b9190611f0b565b611735565b005b3480156104ae57600080fd5b506104c960048036038101906104c49190611d2f565b611820565b005b3480156104d757600080fd5b506104e0611ad1565b6040516104ed9190611f53565b60405180910390f35b34801561050257600080fd5b5061051d60048036038101906105189190611f0b565b611ad7565b60405161052a9190611f38565b60405180910390f35b34801561053f57600080fd5b50610548611af7565b6040516105559190611f53565b60405180910390f35b34801561056a57600080fd5b5061058560048036038101906105809190611f0b565b611afd565b005b60046020528060005260406000206000915090508060000154908060010180546105b0906124ee565b80601f01602080910402602001604051908101604052809291908181526020018280546105dc906124ee565b80156106295780601f106105fe57610100808354040283529160200191610629565b820191906000526020600020905b81548152906001019060200180831161060c57829003601f168201915b5050505050908060020154908060030160009054906101000a900473ffffffffffffffffffffffffffffffffffffffff16908060040154908060050154908060060160009054906101000a900460ff16905087565b60036020528060005260406000206000915054906101000a900460ff1681565b3373ffffffffffffffffffffffffffffffffffffffff16600c60009054906101000a900473ffffffffffffffffffffffffffffffffffffffff1673ffffffffffffffffffffffffffffffffffffffff161461072e576040517f08c379a00000000000000000000000000000000000000000000000000000000081526004016107259061256b565b60405180910390fd5b600b546006546064600460008581526020019081526020016000206004015461075791906125ba565b610761919061262b565b10156107a2576040517f08c379a0000000000000000000000000000000000000000000000000000000008152600401610799906126a8565b60405180910390fd5b600015156004600083815260200190815260200160002060060160009054906101000a900460ff1615151461080c576040517f08c379a000000000000000000000000000000000000000000000000000000000815260040161080390612714565b60405180910390fd5b60016004600083815260200190815260200160002060060160006101000a81548160ff02191690831515021790555061089160046000838152602001908152602001600020600201546004600084815260200190815260200160002060030160009054906101000a900473ffffffffffffffffffffffffffffffffffffffff16611be8565b50565b600b5481565b60095481565b600581815481106108b057600080fd5b906000526020600020016000915054906101000a900473ffffffffffffffffffffffffffffffffffffffff1681565b60011515600360003373ffffffffffffffffffffffffffffffffffffffff1673ffffffffffffffffffffffffffffffffffffffff16815260200190815260200160002060009054906101000a900460ff16151514610972576040517f08c379a000000000000000000000000000000000000000000000000000000000815260040161096990612780565b60405180910390fd5b6000600160003373ffffffffffffffffffffffffffffffffffffffff1673ffffffffffffffffffffffffffffffffffffffff1681526020019081526020016000208190555060008060003373ffffffffffffffffffffffffffffffffffffffff1673ffffffffffffffffffffffffffffffffffffffff16815260200190815260200160002060006101000a81548160ff021916908315150217905550610a57600160003373ffffffffffffffffffffffffffffffffffffffff1673ffffffffffffffffffffffffffffffffffffffff1681526020019081526020016000205433611be8565b565b60065481565b606060006001600954610a7291906127a0565b67ffffffffffffffff811115610a8b57610a8a6121d9565b5b604051908082528060200260200182016040528015610ac457816020015b610ab1611c90565b815260200190600190039081610aa95790505b50905060005b600954811015610c4e57600460008281526020019081526020016000206040518060e001604052908160008201548152602001600182018054610b0c906124ee565b80601f0160208091040260200160405190810160405280929190818152602001828054610b38906124ee565b8015610b855780601f10610b5a57610100808354040283529160200191610b85565b820191906000526020600020905b815481529060010190602001808311610b6857829003601f168201915b50505050508152602001600282015481526020016003820160009054906101000a900473ffffffffffffffffffffffffffffffffffffffff1673ffffffffffffffffffffffffffffffffffffffff1673ffffffffffffffffffffffffffffffffffffffff16815260200160048201548152602001600582015481526020016006820160009054906101000a900460ff161515151581525050828281518110610c3057610c2f6127d4565b5b60200260200101819052508080610c4690612803565b915050610aca565b508091505090565b600115156000803373ffffffffffffffffffffffffffffffffffffffff1673ffffffffffffffffffffffffffffffffffffffff16815260200190815260200160002060009054906101000a900460ff16151514610ce8576040517f08c379a0000000000000000000000000000000000000000000000000000000008152600401610cdf90612897565b60405180910390fd5b81600160003373ffffffffffffffffffffffffffffffffffffffff1673ffffffffffffffffffffffffffffffffffffffff168152602001908152602001600020541015610d6a576040517f08c379a0000000000000000000000000000000000000000000000000000000008152600401610d6190612929565b60405180910390fd5b816007541015610daf576040517f08c379a0000000000000000000000000000000000000000000000000000000008152600401610da690612995565b60405180910390fd5b81600160003373ffffffffffffffffffffffffffffffffffffffff1673ffffffffffffffffffffffffffffffffffffffff1681526020019081526020016000206000828254610dfe91906127a0565b925050819055506000600160003373ffffffffffffffffffffffffffffffffffffffff1673ffffffffffffffffffffffffffffffffffffffff1681526020019081526020016000205403610ea45760008060003373ffffffffffffffffffffffffffffffffffffffff1673ffffffffffffffffffffffffffffffffffffffff16815260200190815260200160002060006101000a81548160ff0219169083151502179055505b81600160008373ffffffffffffffffffffffffffffffffffffffff1673ffffffffffffffffffffffffffffffffffffffff1681526020019081526020016000206000828254610ef391906129b5565b92505081905550600015156000808373ffffffffffffffffffffffffffffffffffffffff1673ffffffffffffffffffffffffffffffffffffffff16815260200190815260200160002060009054906101000a900460ff16151503610fa95760016000808373ffffffffffffffffffffffffffffffffffffffff1673ffffffffffffffffffffffffffffffffffffffff16815260200190815260200160002060006101000a81548160ff0219169083151502179055505b8073ffffffffffffffffffffffffffffffffffffffff166108fc839081150290604051600060405180830381858888f19350505050158015610fef573d6000803e3d6000fd5b505050565b60075481565b600c60009054906101000a900473ffffffffffffffffffffffffffffffffffffffff1681565b426008541015611065576040517f08c379a000000000000000000000000000000000000000000000000000000000815260040161105c90612a35565b60405180910390fd5b600034116110a8576040517f08c379a000000000000000000000000000000000000000000000000000000000815260040161109f90612ac7565b60405180910390fd5b60016000803373ffffffffffffffffffffffffffffffffffffffff1673ffffffffffffffffffffffffffffffffffffffff16815260200190815260200160002060006101000a81548160ff02191690831515021790555034600160003373ffffffffffffffffffffffffffffffffffffffff1673ffffffffffffffffffffffffffffffffffffffff168152602001908152602001600020600082825461114e91906129b5565b92505081905550346006600082825461116791906129b5565b925050819055506005339080600181540180825580915050600190039060005260206000200160009091909190916101000a81548173ffffffffffffffffffffffffffffffffffffffff021916908373ffffffffffffffffffffffffffffffffffffffff16021790555034600760008282546111e391906129b5565b92505081905550565b60016020528060005260406000206000915090505481565b600115156000803373ffffffffffffffffffffffffffffffffffffffff1673ffffffffffffffffffffffffffffffffffffffff16815260200190815260200160002060009054906101000a900460ff16151514611296576040517f08c379a000000000000000000000000000000000000000000000000000000000815260040161128d90612897565b60405180910390fd5b6007548211156112db576040517f08c379a00000000000000000000000000000000000000000000000000000000081526004016112d290612b33565b60405180910390fd5b6040518060e0016040528060095481526020018481526020018381526020018273ffffffffffffffffffffffffffffffffffffffff16815260200160008152602001600a544261132b91906129b5565b81526020016000151581525060046000600954815260200190815260200160002060008201518160000155602082015181600101908161136b9190612cff565b506040820151816002015560608201518160030160006101000a81548173ffffffffffffffffffffffffffffffffffffffff021916908373ffffffffffffffffffffffffffffffffffffffff1602179055506080820151816004015560a0820151816005015560c08201518160060160006101000a81548160ff0219169083151502179055509050506009600081548092919061140790612803565b9190505550505050565b600115156000803373ffffffffffffffffffffffffffffffffffffffff1673ffffffffffffffffffffffffffffffffffffffff16815260200190815260200160002060009054906101000a900460ff161515146114a3576040517f08c379a000000000000000000000000000000000000000000000000000000000815260040161149a90612897565b60405180910390fd5b60001515600260003373ffffffffffffffffffffffffffffffffffffffff1673ffffffffffffffffffffffffffffffffffffffff168152602001908152602001600020600083815260200190815260200160002060009054906101000a900460ff16151514611547576040517f08c379a000000000000000000000000000000000000000000000000000000000815260040161153e90612e43565b60405180910390fd5b42600460008381526020019081526020016000206005015410156115a0576040517f08c379a000000000000000000000000000000000000000000000000000000000815260040161159790612ed5565b60405180910390fd5b6001600260003373ffffffffffffffffffffffffffffffffffffffff1673ffffffffffffffffffffffffffffffffffffffff168152602001908152602001600020600083815260200190815260200160002060006101000a81548160ff021916908315150217905550600160003373ffffffffffffffffffffffffffffffffffffffff1673ffffffffffffffffffffffffffffffffffffffff1681526020019081526020016000205460046000838152602001908152602001600020600401600082825461166e91906129b5565b9250508190555050565b60026020528160005260406000206020528060005260406000206000915091509054906101000a900460ff1681565b6060600580548060200260200160405190810160405280929190818152602001828054801561172b57602002820191906000526020600020905b8160009054906101000a900473ffffffffffffffffffffffffffffffffffffffff1673ffffffffffffffffffffffffffffffffffffffff16815260200190600101908083116116e1575b5050505050905090565b3373ffffffffffffffffffffffffffffffffffffffff16600c60009054906101000a900473ffffffffffffffffffffffffffffffffffffffff1673ffffffffffffffffffffffffffffffffffffffff16146117c5576040517f08c379a00000000000000000000000000000000000000000000000000000000081526004016117bc9061256b565b60405180910390fd5b6000600360008373ffffffffffffffffffffffffffffffffffffffff1673ffffffffffffffffffffffffffffffffffffffff16815260200190815260200160002060006101000a81548160ff02191690831515021790555050565b600115156000803373ffffffffffffffffffffffffffffffffffffffff1673ffffffffffffffffffffffffffffffffffffffff16815260200190815260200160002060009054906101000a900460ff161515146118b2576040517f08c379a00000000000000000000000000000000000000000000000000000000081526004016118a990612897565b60405180910390fd5b80600160003373ffffffffffffffffffffffffffffffffffffffff1673ffffffffffffffffffffffffffffffffffffffff168152602001908152602001600020541015611934576040517f08c379a000000000000000000000000000000000000000000000000000000000815260040161192b90612929565b60405180910390fd5b806007541015611979576040517f08c379a000000000000000000000000000000000000000000000000000000000815260040161197090612995565b60405180910390fd5b80600160003373ffffffffffffffffffffffffffffffffffffffff1673ffffffffffffffffffffffffffffffffffffffff16815260200190815260200160002060008282546119c891906127a0565b925050819055506000600160003373ffffffffffffffffffffffffffffffffffffffff1673ffffffffffffffffffffffffffffffffffffffff1681526020019081526020016000205403611a6e5760008060003373ffffffffffffffffffffffffffffffffffffffff1673ffffffffffffffffffffffffffffffffffffffff16815260200190815260200160002060006101000a81548160ff0219169083151502179055505b8060076000828254611a8091906127a0565b925050819055503373ffffffffffffffffffffffffffffffffffffffff166108fc829081150290604051600060405180830381858888f19350505050158015611acd573d6000803e3d6000fd5b5050565b600a5481565b60006020528060005260406000206000915054906101000a900460ff1681565b60085481565b3373ffffffffffffffffffffffffffffffffffffffff16600c60009054906101000a900473ffffffffffffffffffffffffffffffffffffffff1673ffffffffffffffffffffffffffffffffffffffff1614611b8d576040517f08c379a0000000000000000000000000000000000000000000000000000000008152600401611b849061256b565b60405180910390fd5b6001600360008373ffffffffffffffffffffffffffffffffffffffff1673ffffffffffffffffffffffffffffffffffffffff16815260200190815260200160002060006101000a81548160ff02191690831515021790555050565b6007548210611c2c576040517f08c379a0000000000000000000000000000000000000000000000000000000008152600401611c2390612f41565b60405180910390fd5b8160076000828254611c3e91906127a0565b925050819055508073ffffffffffffffffffffffffffffffffffffffff166108fc839081150290604051600060405180830381858888f19350505050158015611c8b573d6000803e3d6000fd5b505050565b6040518060e00160405280600081526020016060815260200160008152602001600073ffffffffffffffffffffffffffffffffffffffff16815260200160008152602001600081526020016000151581525090565b6000604051905090565b600080fd5b600080fd5b6000819050919050565b611d0c81611cf9565b8114611d1757600080fd5b50565b600081359050611d2981611d03565b92915050565b600060208284031215611d4557611d44611cef565b5b6000611d5384828501611d1a565b91505092915050565b611d6581611cf9565b82525050565b600081519050919050565b600082825260208201905092915050565b60005b83811015611da5578082015181840152602081019050611d8a565b60008484015250505050565b6000601f19601f8301169050919050565b6000611dcd82611d6b565b611dd78185611d76565b9350611de7818560208601611d87565b611df081611db1565b840191505092915050565b600073ffffffffffffffffffffffffffffffffffffffff82169050919050565b6000611e2682611dfb565b9050919050565b611e3681611e1b565b82525050565b60008115159050919050565b611e5181611e3c565b82525050565b600060e082019050611e6c600083018a611d5c565b8181036020830152611e7e8189611dc2565b9050611e8d6040830188611d5c565b611e9a6060830187611e2d565b611ea76080830186611d5c565b611eb460a0830185611d5c565b611ec160c0830184611e48565b98975050505050505050565b6000611ed882611dfb565b9050919050565b611ee881611ecd565b8114611ef357600080fd5b50565b600081359050611f0581611edf565b92915050565b600060208284031215611f2157611f20611cef565b5b6000611f2f84828501611ef6565b91505092915050565b6000602082019050611f4d6000830184611e48565b92915050565b6000602082019050611f686000830184611d5c565b92915050565b611f7781611ecd565b82525050565b6000602082019050611f926000830184611f6e565b92915050565b600081519050919050565b600082825260208201905092915050565b6000819050602082019050919050565b611fcd81611cf9565b82525050565b600082825260208201905092915050565b6000611fef82611d6b565b611ff98185611fd3565b9350612009818560208601611d87565b61201281611db1565b840191505092915050565b61202681611e1b565b82525050565b61203581611e3c565b82525050565b600060e0830160008301516120536000860182611fc4565b506020830151848203602086015261206b8282611fe4565b91505060408301516120806040860182611fc4565b506060830151612093606086018261201d565b5060808301516120a66080860182611fc4565b5060a08301516120b960a0860182611fc4565b5060c08301516120cc60c086018261202c565b508091505092915050565b60006120e3838361203b565b905092915050565b6000602082019050919050565b600061210382611f98565b61210d8185611fa3565b93508360208202850161211f85611fb4565b8060005b8581101561215b578484038952815161213c85826120d7565b9450612147836120eb565b925060208a01995050600181019050612123565b50829750879550505050505092915050565b6000602082019050818103600083015261218781846120f8565b905092915050565b600080604083850312156121a6576121a5611cef565b5b60006121b485828601611d1a565b92505060206121c585828601611ef6565b9150509250929050565b600080fd5b600080fd5b7f4e487b7100000000000000000000000000000000000000000000000000000000600052604160045260246000fd5b61221182611db1565b810181811067ffffffffffffffff821117156122305761222f6121d9565b5b80604052505050565b6000612243611ce5565b905061224f8282612208565b919050565b600067ffffffffffffffff82111561226f5761226e6121d9565b5b61227882611db1565b9050602081019050919050565b82818337600083830152505050565b60006122a76122a284612254565b612239565b9050828152602081018484840111156122c3576122c26121d4565b5b6122ce848285612285565b509392505050565b600082601f8301126122eb576122ea6121cf565b5b81356122fb848260208601612294565b91505092915050565b61230d81611e1b565b811461231857600080fd5b50565b60008135905061232a81612304565b92915050565b60008060006060848603121561234957612348611cef565b5b600084013567ffffffffffffffff81111561236757612366611cf4565b5b612373868287016122d6565b935050602061238486828701611d1a565b92505060406123958682870161231b565b9150509250925092565b600080604083850312156123b6576123b5611cef565b5b60006123c485828601611ef6565b92505060206123d585828601611d1a565b9150509250929050565b600081519050919050565b600082825260208201905092915050565b6000819050602082019050919050565b61241481611ecd565b82525050565b6000612426838361240b565b60208301905092915050565b6000602082019050919050565b600061244a826123df565b61245481856123ea565b935061245f836123fb565b8060005b83811015612490578151612477888261241a565b975061248283612432565b925050600181019050612463565b5085935050505092915050565b600060208201905081810360008301526124b7818461243f565b905092915050565b7f4e487b7100000000000000000000000000000000000000000000000000000000600052602260045260246000fd5b6000600282049050600182168061250657607f821691505b602082108103612519576125186124bf565b5b50919050565b7f796f7520617265206e6f742061206d616e616765720000000000000000000000600082015250565b6000612555601583611d76565b91506125608261251f565b602082019050919050565b6000602082019050818103600083015261258481612548565b9050919050565b7f4e487b7100000000000000000000000000000000000000000000000000000000600052601160045260246000fd5b60006125c582611cf9565b91506125d083611cf9565b92508282026125de81611cf9565b915082820484148315176125f5576125f461258b565b5b5092915050565b7f4e487b7100000000000000000000000000000000000000000000000000000000600052601260045260246000fd5b600061263682611cf9565b915061264183611cf9565b925082612651576126506125fc565b5b828204905092915050565b7f6d696e696d756d2071756f72756e207265717569726564000000000000000000600082015250565b6000612692601783611d76565b915061269d8261265c565b602082019050919050565b600060208201905081810360008301526126c181612685565b9050919050565b7f616c726561647920657865637574656400000000000000000000000000000000600082015250565b60006126fe601083611d76565b9150612709826126c8565b602082019050919050565b6000602082019050818103600083015261272d816126f1565b9050919050565b7f796f7520617265206e6f7420616c6c6f77656420746f20776974686472617700600082015250565b600061276a601f83611d76565b915061277582612734565b602082019050919050565b600060208201905081810360008301526127998161275d565b9050919050565b60006127ab82611cf9565b91506127b683611cf9565b92508282039050818111156127ce576127cd61258b565b5b92915050565b7f4e487b7100000000000000000000000000000000000000000000000000000000600052603260045260246000fd5b600061280e82611cf9565b91507fffffffffffffffffffffffffffffffffffffffffffffffffffffffffffffffff82036128405761283f61258b565b5b600182019050919050565b7f796f7520617265206e6f7420616e20696e766573746f72000000000000000000600082015250565b6000612881601783611d76565b915061288c8261284b565b602082019050919050565b600060208201905081810360008301526128b081612874565b9050919050565b7f796f7520646f206e6f7420686176652073756666696369656e7420736861726560008201527f7300000000000000000000000000000000000000000000000000000000000000602082015250565b6000612913602183611d76565b915061291e826128b7565b604082019050919050565b6000602082019050818103600083015261294281612906565b9050919050565b7f6e6f2073756666696369656e742066756e6420617661696c61626c6500000000600082015250565b600061297f601c83611d76565b915061298a82612949565b602082019050919050565b600060208201905081810360008301526129ae81612972565b9050919050565b60006129c082611cf9565b91506129cb83611cf9565b92508282019050808211156129e3576129e261258b565b5b92915050565b7f636f6e747269627574696f6e2074696d6520656e647300000000000000000000600082015250565b6000612a1f601683611d76565b9150612a2a826129e9565b602082019050919050565b60006020820190508181036000830152612a4e81612a12565b9050919050565b7f636f6e747269627574696f6e20616d6f756e742073686f756c6420626520677260008201527f65746572207468616e2030000000000000000000000000000000000000000000602082015250565b6000612ab1602b83611d76565b9150612abc82612a55565b604082019050919050565b60006020820190508181036000830152612ae081612aa4565b9050919050565b7f6e6f2073756666696369656e742066756e647320617661696c61626c65000000600082015250565b6000612b1d601d83611d76565b9150612b2882612ae7565b602082019050919050565b60006020820190508181036000830152612b4c81612b10565b9050919050565b60008190508160005260206000209050919050565b60006020601f8301049050919050565b600082821b905092915050565b600060088302612bb57fffffffffffffffffffffffffffffffffffffffffffffffffffffffffffffffff82612b78565b612bbf8683612b78565b95508019841693508086168417925050509392505050565b6000819050919050565b6000612bfc612bf7612bf284611cf9565b612bd7565b611cf9565b9050919050565b6000819050919050565b612c1683612be1565b612c2a612c2282612c03565b848454612b85565b825550505050565b600090565b612c3f612c32565b612c4a818484612c0d565b505050565b5b81811015612c6e57612c63600082612c37565b600181019050612c50565b5050565b601f821115612cb357612c8481612b53565b612c8d84612b68565b81016020851015612c9c578190505b612cb0612ca885612b68565b830182612c4f565b50505b505050565b600082821c905092915050565b6000612cd660001984600802612cb8565b1980831691505092915050565b6000612cef8383612cc5565b9150826002028217905092915050565b612d0882611d6b565b67ffffffffffffffff811115612d2157612d206121d9565b5b612d2b82546124ee565b612d36828285612c72565b600060209050601f831160018114612d695760008415612d57578287015190505b612d618582612ce3565b865550612dc9565b601f198416612d7786612b53565b60005b82811015612d9f57848901518255600182019150602085019450602081019050612d7a565b86831015612dbc5784890151612db8601f891682612cc5565b8355505b6001600288020188555050505b505050505050565b7f796f75206861766520616c726561647920766f74656420666f7220746869732060008201527f70726f706f73616c000000000000000000000000000000000000000000000000602082015250565b6000612e2d602883611d76565b9150612e3882612dd1565b604082019050919050565b60006020820190508181036000830152612e5c81612e20565b9050919050565b7f766f74696e672074696d6520656e64656420666f7220746869732070726f706f60008201527f73616c0000000000000000000000000000000000000000000000000000000000602082015250565b6000612ebf602383611d76565b9150612eca82612e63565b604082019050919050565b60006020820190508181036000830152612eee81612eb2565b9050919050565b7f696e73756666696369656e7420616d6f756e7400000000000000000000000000600082015250565b6000612f2b601383611d76565b9150612f3682612ef5565b602082019050919050565b60006020820190508181036000830152612f5a81612f1e565b905091905056fea26469706673582212201cb1861f75389843f507ce4f4e5fe0e3d09e514e7c2853511d25a86236e4170d64736f6c63430008130033","opcodes":"PUSH1 0x80 PUSH1 0x40 MSTORE CALLVALUE DUP1 ISZERO PUSH3 0x11 JUMPI PUSH1 0x0 DUP1 REVERT JUMPDEST POP PUSH1 0x40 MLOAD PUSH3 0x3179 CODESIZE SUB DUP1 PUSH3 0x3179 DUP4 CODECOPY DUP2 DUP2 ADD PUSH1 0x40 MSTORE DUP2 ADD SWAP1 PUSH3 0x37 SWAP2 SWAP1 PUSH3 0x10C JUMP JUMPDEST PUSH1 0x0 DUP2 GT DUP1 ISZERO PUSH3 0x49 JUMPI POP PUSH1 0x64 DUP2 GT ISZERO JUMPDEST PUSH3 0x53 JUMPI PUSH1 0x0 DUP1 REVERT JUMPDEST DUP3 TIMESTAMP PUSH3 0x61 SWAP2 SWAP1 PUSH3 0x197 JUMP JUMPDEST PUSH1 0x8 DUP2 SWAP1 SSTORE POP DUP2 TIMESTAMP PUSH3 0x75 SWAP2 SWAP1 PUSH3 0x197 JUMP JUMPDEST PUSH1 0xA DUP2 SWAP1 SSTORE POP DUP1 PUSH1 0xB DUP2 SWAP1 SSTORE POP CALLER PUSH1 0xC PUSH1 0x0 PUSH2 0x100 EXP DUP2 SLOAD DUP2 PUSH20 0xFFFFFFFFFFFFFFFFFFFFFFFFFFFFFFFFFFFFFFFF MUL NOT AND SWAP1 DUP4 PUSH20 0xFFFFFFFFFFFFFFFFFFFFFFFFFFFFFFFFFFFFFFFF AND MUL OR SWAP1 SSTORE POP POP POP POP PUSH3 0x1D2 JUMP JUMPDEST PUSH1 0x0 DUP1 REVERT JUMPDEST PUSH1 0x0 DUP2 SWAP1 POP SWAP2 SWAP1 POP JUMP JUMPDEST PUSH3 0xE6 DUP2 PUSH3 0xD1 JUMP JUMPDEST DUP2 EQ PUSH3 0xF2 JUMPI PUSH1 0x0 DUP1 REVERT JUMPDEST POP JUMP JUMPDEST PUSH1 0x0 DUP2 MLOAD SWAP1 POP PUSH3 0x106 DUP2 PUSH3 0xDB JUMP JUMPDEST SWAP3 SWAP2 POP POP JUMP JUMPDEST PUSH1 0x0 DUP1 PUSH1 0x0 PUSH1 0x60 DUP5 DUP7 SUB SLT ISZERO PUSH3 0x128 JUMPI PUSH3 0x127 PUSH3 0xCC JUMP JUMPDEST JUMPDEST PUSH1 0x0 PUSH3 0x138 DUP7 DUP3 DUP8 ADD PUSH3 0xF5 JUMP JUMPDEST SWAP4 POP POP PUSH1 0x20 PUSH3 0x14B DUP7 DUP3 DUP8 ADD PUSH3 0xF5 JUMP JUMPDEST SWAP3 POP POP PUSH1 0x40 PUSH3 0x15E DUP7 DUP3 DUP8 ADD PUSH3 0xF5 JUMP JUMPDEST SWAP2 POP POP SWAP3 POP SWAP3 POP SWAP3 JUMP JUMPDEST PUSH32 0x4E487B7100000000000000000000000000000000000000000000000000000000 PUSH1 0x0 MSTORE PUSH1 0x11 PUSH1 0x4 MSTORE PUSH1 0x24 PUSH1 0x0 REVERT JUMPDEST PUSH1 0x0 PUSH3 0x1A4 DUP3 PUSH3 0xD1 JUMP JUMPDEST SWAP2 POP PUSH3 0x1B1 DUP4 PUSH3 0xD1 JUMP JUMPDEST SWAP3 POP DUP3 DUP3 ADD SWAP1 POP DUP1 DUP3 GT ISZERO PUSH3 0x1CC JUMPI PUSH3 0x1CB PUSH3 0x168 JUMP JUMPDEST JUMPDEST SWAP3 SWAP2 POP POP JUMP JUMPDEST PUSH2 0x2F97 DUP1 PUSH3 0x1E2 PUSH1 0x0 CODECOPY PUSH1 0x0 RETURN INVALID PUSH1 0x80 PUSH1 0x40 MSTORE PUSH1 0x4 CALLDATASIZE LT PUSH2 0x14B JUMPI PUSH1 0x0 CALLDATALOAD PUSH1 0xE0 SHR DUP1 PUSH4 0x50520B1F GT PUSH2 0xB6 JUMPI DUP1 PUSH4 0xA9ED9CB8 GT PUSH2 0x6F JUMPI DUP1 PUSH4 0xA9ED9CB8 EQ PUSH2 0x479 JUMPI DUP1 PUSH4 0xADBA9804 EQ PUSH2 0x4A2 JUMPI DUP1 PUSH4 0xBCF93DD6 EQ PUSH2 0x4CB JUMPI DUP1 PUSH4 0xCEE2A9CF EQ PUSH2 0x4F6 JUMPI DUP1 PUSH4 0xF168E7C4 EQ PUSH2 0x533 JUMPI DUP1 PUSH4 0xFF9913E8 EQ PUSH2 0x55E JUMPI PUSH2 0x14B JUMP JUMPDEST DUP1 PUSH4 0x50520B1F EQ PUSH2 0x378 JUMPI DUP1 PUSH4 0x6A907803 EQ PUSH2 0x382 JUMPI DUP1 PUSH4 0x6AC1E01F EQ PUSH2 0x3BF JUMPI DUP1 PUSH4 0x807896D5 EQ PUSH2 0x3E8 JUMPI DUP1 PUSH4 0x8EE36F05 EQ PUSH2 0x411 JUMPI DUP1 PUSH4 0xA1F8ADAC EQ PUSH2 0x44E JUMPI PUSH2 0x14B JUMP JUMPDEST DUP1 PUSH4 0x31C91117 GT PUSH2 0x108 JUMPI DUP1 PUSH4 0x31C91117 EQ PUSH2 0x28C JUMPI DUP1 PUSH4 0x3A98EF39 EQ PUSH2 0x2A3 JUMPI DUP1 PUSH4 0x44389524 EQ PUSH2 0x2CE JUMPI DUP1 PUSH4 0x45579B1F EQ PUSH2 0x2F9 JUMPI DUP1 PUSH4 0x46FCFF4C EQ PUSH2 0x322 JUMPI DUP1 PUSH4 0x481C6A75 EQ PUSH2 0x34D JUMPI PUSH2 0x14B JUMP JUMPDEST DUP1 PUSH4 0x13CF08B EQ PUSH2 0x150 JUMPI DUP1 PUSH4 0x59FC354 EQ PUSH2 0x193 JUMPI DUP1 PUSH4 0xD61B519 EQ PUSH2 0x1D0 JUMPI DUP1 PUSH4 0x1703A018 EQ PUSH2 0x1F9 JUMPI DUP1 PUSH4 0x2AB09D14 EQ PUSH2 0x224 JUMPI DUP1 PUSH4 0x2CCC8727 EQ PUSH2 0x24F JUMPI JUMPDEST PUSH1 0x0 DUP1 REVERT JUMPDEST CALLVALUE DUP1 ISZERO PUSH2 0x15C JUMPI PUSH1 0x0 DUP1 REVERT JUMPDEST POP PUSH2 0x177 PUSH1 0x4 DUP1 CALLDATASIZE SUB DUP2 ADD SWAP1 PUSH2 0x172 SWAP2 SWAP1 PUSH2 0x1D2F JUMP JUMPDEST PUSH2 0x587 JUMP JUMPDEST PUSH1 0x40 MLOAD PUSH2 0x18A SWAP8 SWAP7 SWAP6 SWAP5 SWAP4 SWAP3 SWAP2 SWAP1 PUSH2 0x1E57 JUMP JUMPDEST PUSH1 0x40 MLOAD DUP1 SWAP2 SUB SWAP1 RETURN JUMPDEST CALLVALUE DUP1 ISZERO PUSH2 0x19F JUMPI PUSH1 0x0 DUP1 REVERT JUMPDEST POP PUSH2 0x1BA PUSH1 0x4 DUP1 CALLDATASIZE SUB DUP2 ADD SWAP1 PUSH2 0x1B5 SWAP2 SWAP1 PUSH2 0x1F0B JUMP JUMPDEST PUSH2 0x67E JUMP JUMPDEST PUSH1 0x40 MLOAD PUSH2 0x1C7 SWAP2 SWAP1 PUSH2 0x1F38 JUMP JUMPDEST PUSH1 0x40 MLOAD DUP1 SWAP2 SUB SWAP1 RETURN JUMPDEST CALLVALUE DUP1 ISZERO PUSH2 0x1DC JUMPI PUSH1 0x0 DUP1 REVERT JUMPDEST POP PUSH2 0x1F7 PUSH1 0x4 DUP1 CALLDATASIZE SUB DUP2 ADD SWAP1 PUSH2 0x1F2 SWAP2 SWAP1 PUSH2 0x1D2F JUMP JUMPDEST PUSH2 0x69E JUMP JUMPDEST STOP JUMPDEST CALLVALUE DUP1 ISZERO PUSH2 0x205 JUMPI PUSH1 0x0 DUP1 REVERT JUMPDEST POP PUSH2 0x20E PUSH2 0x894 JUMP JUMPDEST PUSH1 0x40 MLOAD PUSH2 0x21B SWAP2 SWAP1 PUSH2 0x1F53 JUMP JUMPDEST PUSH1 0x40 MLOAD DUP1 SWAP2 SUB SWAP1 RETURN JUMPDEST CALLVALUE DUP1 ISZERO PUSH2 0x230 JUMPI PUSH1 0x0 DUP1 REVERT JUMPDEST POP PUSH2 0x239 PUSH2 0x89A JUMP JUMPDEST PUSH1 0x40 MLOAD PUSH2 0x246 SWAP2 SWAP1 PUSH2 0x1F53 JUMP JUMPDEST PUSH1 0x40 MLOAD DUP1 SWAP2 SUB SWAP1 RETURN JUMPDEST CALLVALUE DUP1 ISZERO PUSH2 0x25B JUMPI PUSH1 0x0 DUP1 REVERT JUMPDEST POP PUSH2 0x276 PUSH1 0x4 DUP1 CALLDATASIZE SUB DUP2 ADD SWAP1 PUSH2 0x271 SWAP2 SWAP1 PUSH2 0x1D2F JUMP JUMPDEST PUSH2 0x8A0 JUMP JUMPDEST PUSH1 0x40 MLOAD PUSH2 0x283 SWAP2 SWAP1 PUSH2 0x1F7D JUMP JUMPDEST PUSH1 0x40 MLOAD DUP1 SWAP2 SUB SWAP1 RETURN JUMPDEST CALLVALUE DUP1 ISZERO PUSH2 0x298 JUMPI PUSH1 0x0 DUP1 REVERT JUMPDEST POP PUSH2 0x2A1 PUSH2 0x8DF JUMP JUMPDEST STOP JUMPDEST CALLVALUE DUP1 ISZERO PUSH2 0x2AF JUMPI PUSH1 0x0 DUP1 REVERT JUMPDEST POP PUSH2 0x2B8 PUSH2 0xA59 JUMP JUMPDEST PUSH1 0x40 MLOAD PUSH2 0x2C5 SWAP2 SWAP1 PUSH2 0x1F53 JUMP JUMPDEST PUSH1 0x40 MLOAD DUP1 SWAP2 SUB SWAP1 RETURN JUMPDEST CALLVALUE DUP1 ISZERO PUSH2 0x2DA JUMPI PUSH1 0x0 DUP1 REVERT JUMPDEST POP PUSH2 0x2E3 PUSH2 0xA5F JUMP JUMPDEST PUSH1 0x40 MLOAD PUSH2 0x2F0 SWAP2 SWAP1 PUSH2 0x216D JUMP JUMPDEST PUSH1 0x40 MLOAD DUP1 SWAP2 SUB SWAP1 RETURN JUMPDEST CALLVALUE DUP1 ISZERO PUSH2 0x305 JUMPI PUSH1 0x0 DUP1 REVERT JUMPDEST POP PUSH2 0x320 PUSH1 0x4 DUP1 CALLDATASIZE SUB DUP2 ADD SWAP1 PUSH2 0x31B SWAP2 SWAP1 PUSH2 0x218F JUMP JUMPDEST PUSH2 0xC56 JUMP JUMPDEST STOP JUMPDEST CALLVALUE DUP1 ISZERO PUSH2 0x32E JUMPI PUSH1 0x0 DUP1 REVERT JUMPDEST POP PUSH2 0x337 PUSH2 0xFF4 JUMP JUMPDEST PUSH1 0x40 MLOAD PUSH2 0x344 SWAP2 SWAP1 PUSH2 0x1F53 JUMP JUMPDEST PUSH1 0x40 MLOAD DUP1 SWAP2 SUB SWAP1 RETURN JUMPDEST CALLVALUE DUP1 ISZERO PUSH2 0x359 JUMPI PUSH1 0x0 DUP1 REVERT JUMPDEST POP PUSH2 0x362 PUSH2 0xFFA JUMP JUMPDEST PUSH1 0x40 MLOAD PUSH2 0x36F SWAP2 SWAP1 PUSH2 0x1F7D JUMP JUMPDEST PUSH1 0x40 MLOAD DUP1 SWAP2 SUB SWAP1 RETURN JUMPDEST PUSH2 0x380 PUSH2 0x1020 JUMP JUMPDEST STOP JUMPDEST CALLVALUE DUP1 ISZERO PUSH2 0x38E JUMPI PUSH1 0x0 DUP1 REVERT JUMPDEST POP PUSH2 0x3A9 PUSH1 0x4 DUP1 CALLDATASIZE SUB DUP2 ADD SWAP1 PUSH2 0x3A4 SWAP2 SWAP1 PUSH2 0x1F0B JUMP JUMPDEST PUSH2 0x11EC JUMP JUMPDEST PUSH1 0x40 MLOAD PUSH2 0x3B6 SWAP2 SWAP1 PUSH2 0x1F53 JUMP JUMPDEST PUSH1 0x40 MLOAD DUP1 SWAP2 SUB SWAP1 RETURN JUMPDEST CALLVALUE DUP1 ISZERO PUSH2 0x3CB JUMPI PUSH1 0x0 DUP1 REVERT JUMPDEST POP PUSH2 0x3E6 PUSH1 0x4 DUP1 CALLDATASIZE SUB DUP2 ADD SWAP1 PUSH2 0x3E1 SWAP2 SWAP1 PUSH2 0x2330 JUMP JUMPDEST PUSH2 0x1204 JUMP JUMPDEST STOP JUMPDEST CALLVALUE DUP1 ISZERO PUSH2 0x3F4 JUMPI PUSH1 0x0 DUP1 REVERT JUMPDEST POP PUSH2 0x40F PUSH1 0x4 DUP1 CALLDATASIZE SUB DUP2 ADD SWAP1 PUSH2 0x40A SWAP2 SWAP1 PUSH2 0x1D2F JUMP JUMPDEST PUSH2 0x1411 JUMP JUMPDEST STOP JUMPDEST CALLVALUE DUP1 ISZERO PUSH2 0x41D JUMPI PUSH1 0x0 DUP1 REVERT JUMPDEST POP PUSH2 0x438 PUSH1 0x4 DUP1 CALLDATASIZE SUB DUP2 ADD SWAP1 PUSH2 0x433 SWAP2 SWAP1 PUSH2 0x239F JUMP JUMPDEST PUSH2 0x1678 JUMP JUMPDEST PUSH1 0x40 MLOAD PUSH2 0x445 SWAP2 SWAP1 PUSH2 0x1F38 JUMP JUMPDEST PUSH1 0x40 MLOAD DUP1 SWAP2 SUB SWAP1 RETURN JUMPDEST CALLVALUE DUP1 ISZERO PUSH2 0x45A JUMPI PUSH1 0x0 DUP1 REVERT JUMPDEST POP PUSH2 0x463 PUSH2 0x16A7 JUMP JUMPDEST PUSH1 0x40 MLOAD PUSH2 0x470 SWAP2 SWAP1 PUSH2 0x249D JUMP JUMPDEST PUSH1 0x40 MLOAD DUP1 SWAP2 SUB SWAP1 RETURN JUMPDEST CALLVALUE DUP1 ISZERO PUSH2 0x485 JUMPI PUSH1 0x0 DUP1 REVERT JUMPDEST POP PUSH2 0x4A0 PUSH1 0x4 DUP1 CALLDATASIZE SUB DUP2 ADD SWAP1 PUSH2 0x49B SWAP2 SWAP1 PUSH2 0x1F0B JUMP JUMPDEST PUSH2 0x1735 JUMP JUMPDEST STOP JUMPDEST CALLVALUE DUP1 ISZERO PUSH2 0x4AE JUMPI PUSH1 0x0 DUP1 REVERT JUMPDEST POP PUSH2 0x4C9 PUSH1 0x4 DUP1 CALLDATASIZE SUB DUP2 ADD SWAP1 PUSH2 0x4C4 SWAP2 SWAP1 PUSH2 0x1D2F JUMP JUMPDEST PUSH2 0x1820 JUMP JUMPDEST STOP JUMPDEST CALLVALUE DUP1 ISZERO PUSH2 0x4D7 JUMPI PUSH1 0x0 DUP1 REVERT JUMPDEST POP PUSH2 0x4E0 PUSH2 0x1AD1 JUMP JUMPDEST PUSH1 0x40 MLOAD PUSH2 0x4ED SWAP2 SWAP1 PUSH2 0x1F53 JUMP JUMPDEST PUSH1 0x40 MLOAD DUP1 SWAP2 SUB SWAP1 RETURN JUMPDEST CALLVALUE DUP1 ISZERO PUSH2 0x502 JUMPI PUSH1 0x0 DUP1 REVERT JUMPDEST POP PUSH2 0x51D PUSH1 0x4 DUP1 CALLDATASIZE SUB DUP2 ADD SWAP1 PUSH2 0x518 SWAP2 SWAP1 PUSH2 0x1F0B JUMP JUMPDEST PUSH2 0x1AD7 JUMP JUMPDEST PUSH1 0x40 MLOAD PUSH2 0x52A SWAP2 SWAP1 PUSH2 0x1F38 JUMP JUMPDEST PUSH1 0x40 MLOAD DUP1 SWAP2 SUB SWAP1 RETURN JUMPDEST CALLVALUE DUP1 ISZERO PUSH2 0x53F JUMPI PUSH1 0x0 DUP1 REVERT JUMPDEST POP PUSH2 0x548 PUSH2 0x1AF7 JUMP JUMPDEST PUSH1 0x40 MLOAD PUSH2 0x555 SWAP2 SWAP1 PUSH2 0x1F53 JUMP JUMPDEST PUSH1 0x40 MLOAD DUP1 SWAP2 SUB SWAP1 RETURN JUMPDEST CALLVALUE DUP1 ISZERO PUSH2 0x56A JUMPI PUSH1 0x0 DUP1 REVERT JUMPDEST POP PUSH2 0x585 PUSH1 0x4 DUP1 CALLDATASIZE SUB DUP2 ADD SWAP1 PUSH2 0x580 SWAP2 SWAP1 PUSH2 0x1F0B JUMP JUMPDEST PUSH2 0x1AFD JUMP JUMPDEST STOP JUMPDEST PUSH1 0x4 PUSH1 0x20 MSTORE DUP1 PUSH1 0x0 MSTORE PUSH1 0x40 PUSH1 0x0 KECCAK256 PUSH1 0x0 SWAP2 POP SWAP1 POP DUP1 PUSH1 0x0 ADD SLOAD SWAP1 DUP1 PUSH1 0x1 ADD DUP1 SLOAD PUSH2 0x5B0 SWAP1 PUSH2 0x24EE JUMP JUMPDEST DUP1 PUSH1 0x1F ADD PUSH1 0x20 DUP1 SWAP2 DIV MUL PUSH1 0x20 ADD PUSH1 0x40 MLOAD SWAP1 DUP2 ADD PUSH1 0x40 MSTORE DUP1 SWAP3 SWAP2 SWAP1 DUP2 DUP2 MSTORE PUSH1 0x20 ADD DUP3 DUP1 SLOAD PUSH2 0x5DC SWAP1 PUSH2 0x24EE JUMP JUMPDEST DUP1 ISZERO PUSH2 0x629 JUMPI DUP1 PUSH1 0x1F LT PUSH2 0x5FE JUMPI PUSH2 0x100 DUP1 DUP4 SLOAD DIV MUL DUP4 MSTORE SWAP2 PUSH1 0x20 ADD SWAP2 PUSH2 0x629 JUMP JUMPDEST DUP3 ADD SWAP2 SWAP1 PUSH1 0x0 MSTORE PUSH1 0x20 PUSH1 0x0 KECCAK256 SWAP1 JUMPDEST DUP2 SLOAD DUP2 MSTORE SWAP1 PUSH1 0x1 ADD SWAP1 PUSH1 0x20 ADD DUP1 DUP4 GT PUSH2 0x60C JUMPI DUP3 SWAP1 SUB PUSH1 0x1F AND DUP3 ADD SWAP2 JUMPDEST POP POP POP POP POP SWAP1 DUP1 PUSH1 0x2 ADD SLOAD SWAP1 DUP1 PUSH1 0x3 ADD PUSH1 0x0 SWAP1 SLOAD SWAP1 PUSH2 0x100 EXP SWAP1 DIV PUSH20 0xFFFFFFFFFFFFFFFFFFFFFFFFFFFFFFFFFFFFFFFF AND SWAP1 DUP1 PUSH1 0x4 ADD SLOAD SWAP1 DUP1 PUSH1 0x5 ADD SLOAD SWAP1 DUP1 PUSH1 0x6 ADD PUSH1 0x0 SWAP1 SLOAD SWAP1 PUSH2 0x100 EXP SWAP1 DIV PUSH1 0xFF AND SWAP1 POP DUP8 JUMP JUMPDEST PUSH1 0x3 PUSH1 0x20 MSTORE DUP1 PUSH1 0x0 MSTORE PUSH1 0x40 PUSH1 0x0 KECCAK256 PUSH1 0x0 SWAP2 POP SLOAD SWAP1 PUSH2 0x100 EXP SWAP1 DIV PUSH1 0xFF AND DUP2 JUMP JUMPDEST CALLER PUSH20 0xFFFFFFFFFFFFFFFFFFFFFFFFFFFFFFFFFFFFFFFF AND PUSH1 0xC PUSH1 0x0 SWAP1 SLOAD SWAP1 PUSH2 0x100 EXP SWAP1 DIV PUSH20 0xFFFFFFFFFFFFFFFFFFFFFFFFFFFFFFFFFFFFFFFF AND PUSH20 0xFFFFFFFFFFFFFFFFFFFFFFFFFFFFFFFFFFFFFFFF AND EQ PUSH2 0x72E JUMPI PUSH1 0x40 MLOAD PUSH32 0x8C379A000000000000000000000000000000000000000000000000000000000 DUP2 MSTORE PUSH1 0x4 ADD PUSH2 0x725 SWAP1 PUSH2 0x256B JUMP JUMPDEST PUSH1 0x40 MLOAD DUP1 SWAP2 SUB SWAP1 REVERT JUMPDEST PUSH1 0xB SLOAD PUSH1 0x6 SLOAD PUSH1 0x64 PUSH1 0x4 PUSH1 0x0 DUP6 DUP2 MSTORE PUSH1 0x20 ADD SWAP1 DUP2 MSTORE PUSH1 0x20 ADD PUSH1 0x0 KECCAK256 PUSH1 0x4 ADD SLOAD PUSH2 0x757 SWAP2 SWAP1 PUSH2 0x25BA JUMP JUMPDEST PUSH2 0x761 SWAP2 SWAP1 PUSH2 0x262B JUMP JUMPDEST LT ISZERO PUSH2 0x7A2 JUMPI PUSH1 0x40 MLOAD PUSH32 0x8C379A000000000000000000000000000000000000000000000000000000000 DUP2 MSTORE PUSH1 0x4 ADD PUSH2 0x799 SWAP1 PUSH2 0x26A8 JUMP JUMPDEST PUSH1 0x40 MLOAD DUP1 SWAP2 SUB SWAP1 REVERT JUMPDEST PUSH1 0x0 ISZERO ISZERO PUSH1 0x4 PUSH1 0x0 DUP4 DUP2 MSTORE PUSH1 0x20 ADD SWAP1 DUP2 MSTORE PUSH1 0x20 ADD PUSH1 0x0 KECCAK256 PUSH1 0x6 ADD PUSH1 0x0 SWAP1 SLOAD SWAP1 PUSH2 0x100 EXP SWAP1 DIV PUSH1 0xFF AND ISZERO ISZERO EQ PUSH2 0x80C JUMPI PUSH1 0x40 MLOAD PUSH32 0x8C379A000000000000000000000000000000000000000000000000000000000 DUP2 MSTORE PUSH1 0x4 ADD PUSH2 0x803 SWAP1 PUSH2 0x2714 JUMP JUMPDEST PUSH1 0x40 MLOAD DUP1 SWAP2 SUB SWAP1 REVERT JUMPDEST PUSH1 0x1 PUSH1 0x4 PUSH1 0x0 DUP4 DUP2 MSTORE PUSH1 0x20 ADD SWAP1 DUP2 MSTORE PUSH1 0x20 ADD PUSH1 0x0 KECCAK256 PUSH1 0x6 ADD PUSH1 0x0 PUSH2 0x100 EXP DUP2 SLOAD DUP2 PUSH1 0xFF MUL NOT AND SWAP1 DUP4 ISZERO ISZERO MUL OR SWAP1 SSTORE POP PUSH2 0x891 PUSH1 0x4 PUSH1 0x0 DUP4 DUP2 MSTORE PUSH1 0x20 ADD SWAP1 DUP2 MSTORE PUSH1 0x20 ADD PUSH1 0x0 KECCAK256 PUSH1 0x2 ADD SLOAD PUSH1 0x4 PUSH1 0x0 DUP5 DUP2 MSTORE PUSH1 0x20 ADD SWAP1 DUP2 MSTORE PUSH1 0x20 ADD PUSH1 0x0 KECCAK256 PUSH1 0x3 ADD PUSH1 0x0 SWAP1 SLOAD SWAP1 PUSH2 0x100 EXP SWAP1 DIV PUSH20 0xFFFFFFFFFFFFFFFFFFFFFFFFFFFFFFFFFFFFFFFF AND PUSH2 0x1BE8 JUMP JUMPDEST POP JUMP JUMPDEST PUSH1 0xB SLOAD DUP2 JUMP JUMPDEST PUSH1 0x9 SLOAD DUP2 JUMP JUMPDEST PUSH1 0x5 DUP2 DUP2 SLOAD DUP2 LT PUSH2 0x8B0 JUMPI PUSH1 0x0 DUP1 REVERT JUMPDEST SWAP1 PUSH1 0x0 MSTORE PUSH1 0x20 PUSH1 0x0 KECCAK256 ADD PUSH1 0x0 SWAP2 POP SLOAD SWAP1 PUSH2 0x100 EXP SWAP1 DIV PUSH20 0xFFFFFFFFFFFFFFFFFFFFFFFFFFFFFFFFFFFFFFFF AND DUP2 JUMP JUMPDEST PUSH1 0x1 ISZERO ISZERO PUSH1 0x3 PUSH1 0x0 CALLER PUSH20 0xFFFFFFFFFFFFFFFFFFFFFFFFFFFFFFFFFFFFFFFF AND PUSH20 0xFFFFFFFFFFFFFFFFFFFFFFFFFFFFFFFFFFFFFFFF AND DUP2 MSTORE PUSH1 0x20 ADD SWAP1 DUP2 MSTORE PUSH1 0x20 ADD PUSH1 0x0 KECCAK256 PUSH1 0x0 SWAP1 SLOAD SWAP1 PUSH2 0x100 EXP SWAP1 DIV PUSH1 0xFF AND ISZERO ISZERO EQ PUSH2 0x972 JUMPI PUSH1 0x40 MLOAD PUSH32 0x8C379A000000000000000000000000000000000000000000000000000000000 DUP2 MSTORE PUSH1 0x4 ADD PUSH2 0x969 SWAP1 PUSH2 0x2780 JUMP JUMPDEST PUSH1 0x40 MLOAD DUP1 SWAP2 SUB SWAP1 REVERT JUMPDEST PUSH1 0x0 PUSH1 0x1 PUSH1 0x0 CALLER PUSH20 0xFFFFFFFFFFFFFFFFFFFFFFFFFFFFFFFFFFFFFFFF AND PUSH20 0xFFFFFFFFFFFFFFFFFFFFFFFFFFFFFFFFFFFFFFFF AND DUP2 MSTORE PUSH1 0x20 ADD SWAP1 DUP2 MSTORE PUSH1 0x20 ADD PUSH1 0x0 KECCAK256 DUP2 SWAP1 SSTORE POP PUSH1 0x0 DUP1 PUSH1 0x0 CALLER PUSH20 0xFFFFFFFFFFFFFFFFFFFFFFFFFFFFFFFFFFFFFFFF AND PUSH20 0xFFFFFFFFFFFFFFFFFFFFFFFFFFFFFFFFFFFFFFFF AND DUP2 MSTORE PUSH1 0x20 ADD SWAP1 DUP2 MSTORE PUSH1 0x20 ADD PUSH1 0x0 KECCAK256 PUSH1 0x0 PUSH2 0x100 EXP DUP2 SLOAD DUP2 PUSH1 0xFF MUL NOT AND SWAP1 DUP4 ISZERO ISZERO MUL OR SWAP1 SSTORE POP PUSH2 0xA57 PUSH1 0x1 PUSH1 0x0 CALLER PUSH20 0xFFFFFFFFFFFFFFFFFFFFFFFFFFFFFFFFFFFFFFFF AND PUSH20 0xFFFFFFFFFFFFFFFFFFFFFFFFFFFFFFFFFFFFFFFF AND DUP2 MSTORE PUSH1 0x20 ADD SWAP1 DUP2 MSTORE PUSH1 0x20 ADD PUSH1 0x0 KECCAK256 SLOAD CALLER PUSH2 0x1BE8 JUMP JUMPDEST JUMP JUMPDEST PUSH1 0x6 SLOAD DUP2 JUMP JUMPDEST PUSH1 0x60 PUSH1 0x0 PUSH1 0x1 PUSH1 0x9 SLOAD PUSH2 0xA72 SWAP2 SWAP1 PUSH2 0x27A0 JUMP JUMPDEST PUSH8 0xFFFFFFFFFFFFFFFF DUP2 GT ISZERO PUSH2 0xA8B JUMPI PUSH2 0xA8A PUSH2 0x21D9 JUMP JUMPDEST JUMPDEST PUSH1 0x40 MLOAD SWAP1 DUP1 DUP3 MSTORE DUP1 PUSH1 0x20 MUL PUSH1 0x20 ADD DUP3 ADD PUSH1 0x40 MSTORE DUP1 ISZERO PUSH2 0xAC4 JUMPI DUP2 PUSH1 0x20 ADD JUMPDEST PUSH2 0xAB1 PUSH2 0x1C90 JUMP JUMPDEST DUP2 MSTORE PUSH1 0x20 ADD SWAP1 PUSH1 0x1 SWAP1 SUB SWAP1 DUP2 PUSH2 0xAA9 JUMPI SWAP1 POP JUMPDEST POP SWAP1 POP PUSH1 0x0 JUMPDEST PUSH1 0x9 SLOAD DUP2 LT ISZERO PUSH2 0xC4E JUMPI PUSH1 0x4 PUSH1 0x0 DUP3 DUP2 MSTORE PUSH1 0x20 ADD SWAP1 DUP2 MSTORE PUSH1 0x20 ADD PUSH1 0x0 KECCAK256 PUSH1 0x40 MLOAD DUP1 PUSH1 0xE0 ADD PUSH1 0x40 MSTORE SWAP1 DUP2 PUSH1 0x0 DUP3 ADD SLOAD DUP2 MSTORE PUSH1 0x20 ADD PUSH1 0x1 DUP3 ADD DUP1 SLOAD PUSH2 0xB0C SWAP1 PUSH2 0x24EE JUMP JUMPDEST DUP1 PUSH1 0x1F ADD PUSH1 0x20 DUP1 SWAP2 DIV MUL PUSH1 0x20 ADD PUSH1 0x40 MLOAD SWAP1 DUP2 ADD PUSH1 0x40 MSTORE DUP1 SWAP3 SWAP2 SWAP1 DUP2 DUP2 MSTORE PUSH1 0x20 ADD DUP3 DUP1 SLOAD PUSH2 0xB38 SWAP1 PUSH2 0x24EE JUMP JUMPDEST DUP1 ISZERO PUSH2 0xB85 JUMPI DUP1 PUSH1 0x1F LT PUSH2 0xB5A JUMPI PUSH2 0x100 DUP1 DUP4 SLOAD DIV MUL DUP4 MSTORE SWAP2 PUSH1 0x20 ADD SWAP2 PUSH2 0xB85 JUMP JUMPDEST DUP3 ADD SWAP2 SWAP1 PUSH1 0x0 MSTORE PUSH1 0x20 PUSH1 0x0 KECCAK256 SWAP1 JUMPDEST DUP2 SLOAD DUP2 MSTORE SWAP1 PUSH1 0x1 ADD SWAP1 PUSH1 0x20 ADD DUP1 DUP4 GT PUSH2 0xB68 JUMPI DUP3 SWAP1 SUB PUSH1 0x1F AND DUP3 ADD SWAP2 JUMPDEST POP POP POP POP POP DUP2 MSTORE PUSH1 0x20 ADD PUSH1 0x2 DUP3 ADD SLOAD DUP2 MSTORE PUSH1 0x20 ADD PUSH1 0x3 DUP3 ADD PUSH1 0x0 SWAP1 SLOAD SWAP1 PUSH2 0x100 EXP SWAP1 DIV PUSH20 0xFFFFFFFFFFFFFFFFFFFFFFFFFFFFFFFFFFFFFFFF AND PUSH20 0xFFFFFFFFFFFFFFFFFFFFFFFFFFFFFFFFFFFFFFFF AND PUSH20 0xFFFFFFFFFFFFFFFFFFFFFFFFFFFFFFFFFFFFFFFF AND DUP2 MSTORE PUSH1 0x20 ADD PUSH1 0x4 DUP3 ADD SLOAD DUP2 MSTORE PUSH1 0x20 ADD PUSH1 0x5 DUP3 ADD SLOAD DUP2 MSTORE PUSH1 0x20 ADD PUSH1 0x6 DUP3 ADD PUSH1 0x0 SWAP1 SLOAD SWAP1 PUSH2 0x100 EXP SWAP1 DIV PUSH1 0xFF AND ISZERO ISZERO ISZERO ISZERO DUP2 MSTORE POP POP DUP3 DUP3 DUP2 MLOAD DUP2 LT PUSH2 0xC30 JUMPI PUSH2 0xC2F PUSH2 0x27D4 JUMP JUMPDEST JUMPDEST PUSH1 0x20 MUL PUSH1 0x20 ADD ADD DUP2 SWAP1 MSTORE POP DUP1 DUP1 PUSH2 0xC46 SWAP1 PUSH2 0x2803 JUMP JUMPDEST SWAP2 POP POP PUSH2 0xACA JUMP JUMPDEST POP DUP1 SWAP2 POP POP SWAP1 JUMP JUMPDEST PUSH1 0x1 ISZERO ISZERO PUSH1 0x0 DUP1 CALLER PUSH20 0xFFFFFFFFFFFFFFFFFFFFFFFFFFFFFFFFFFFFFFFF AND PUSH20 0xFFFFFFFFFFFFFFFFFFFFFFFFFFFFFFFFFFFFFFFF AND DUP2 MSTORE PUSH1 0x20 ADD SWAP1 DUP2 MSTORE PUSH1 0x20 ADD PUSH1 0x0 KECCAK256 PUSH1 0x0 SWAP1 SLOAD SWAP1 PUSH2 0x100 EXP SWAP1 DIV PUSH1 0xFF AND ISZERO ISZERO EQ PUSH2 0xCE8 JUMPI PUSH1 0x40 MLOAD PUSH32 0x8C379A000000000000000000000000000000000000000000000000000000000 DUP2 MSTORE PUSH1 0x4 ADD PUSH2 0xCDF SWAP1 PUSH2 0x2897 JUMP JUMPDEST PUSH1 0x40 MLOAD DUP1 SWAP2 SUB SWAP1 REVERT JUMPDEST DUP2 PUSH1 0x1 PUSH1 0x0 CALLER PUSH20 0xFFFFFFFFFFFFFFFFFFFFFFFFFFFFFFFFFFFFFFFF AND PUSH20 0xFFFFFFFFFFFFFFFFFFFFFFFFFFFFFFFFFFFFFFFF AND DUP2 MSTORE PUSH1 0x20 ADD SWAP1 DUP2 MSTORE PUSH1 0x20 ADD PUSH1 0x0 KECCAK256 SLOAD LT ISZERO PUSH2 0xD6A JUMPI PUSH1 0x40 MLOAD PUSH32 0x8C379A000000000000000000000000000000000000000000000000000000000 DUP2 MSTORE PUSH1 0x4 ADD PUSH2 0xD61 SWAP1 PUSH2 0x2929 JUMP JUMPDEST PUSH1 0x40 MLOAD DUP1 SWAP2 SUB SWAP1 REVERT JUMPDEST DUP2 PUSH1 0x7 SLOAD LT ISZERO PUSH2 0xDAF JUMPI PUSH1 0x40 MLOAD PUSH32 0x8C379A000000000000000000000000000000000000000000000000000000000 DUP2 MSTORE PUSH1 0x4 ADD PUSH2 0xDA6 SWAP1 PUSH2 0x2995 JUMP JUMPDEST PUSH1 0x40 MLOAD DUP1 SWAP2 SUB SWAP1 REVERT JUMPDEST DUP2 PUSH1 0x1 PUSH1 0x0 CALLER PUSH20 0xFFFFFFFFFFFFFFFFFFFFFFFFFFFFFFFFFFFFFFFF AND PUSH20 0xFFFFFFFFFFFFFFFFFFFFFFFFFFFFFFFFFFFFFFFF AND DUP2 MSTORE PUSH1 0x20 ADD SWAP1 DUP2 MSTORE PUSH1 0x20 ADD PUSH1 0x0 KECCAK256 PUSH1 0x0 DUP3 DUP3 SLOAD PUSH2 0xDFE SWAP2 SWAP1 PUSH2 0x27A0 JUMP JUMPDEST SWAP3 POP POP DUP2 SWAP1 SSTORE POP PUSH1 0x0 PUSH1 0x1 PUSH1 0x0 CALLER PUSH20 0xFFFFFFFFFFFFFFFFFFFFFFFFFFFFFFFFFFFFFFFF AND PUSH20 0xFFFFFFFFFFFFFFFFFFFFFFFFFFFFFFFFFFFFFFFF AND DUP2 MSTORE PUSH1 0x20 ADD SWAP1 DUP2 MSTORE PUSH1 0x20 ADD PUSH1 0x0 KECCAK256 SLOAD SUB PUSH2 0xEA4 JUMPI PUSH1 0x0 DUP1 PUSH1 0x0 CALLER PUSH20 0xFFFFFFFFFFFFFFFFFFFFFFFFFFFFFFFFFFFFFFFF AND PUSH20 0xFFFFFFFFFFFFFFFFFFFFFFFFFFFFFFFFFFFFFFFF AND DUP2 MSTORE PUSH1 0x20 ADD SWAP1 DUP2 MSTORE PUSH1 0x20 ADD PUSH1 0x0 KECCAK256 PUSH1 0x0 PUSH2 0x100 EXP DUP2 SLOAD DUP2 PUSH1 0xFF MUL NOT AND SWAP1 DUP4 ISZERO ISZERO MUL OR SWAP1 SSTORE POP JUMPDEST DUP2 PUSH1 0x1 PUSH1 0x0 DUP4 PUSH20 0xFFFFFFFFFFFFFFFFFFFFFFFFFFFFFFFFFFFFFFFF AND PUSH20 0xFFFFFFFFFFFFFFFFFFFFFFFFFFFFFFFFFFFFFFFF AND DUP2 MSTORE PUSH1 0x20 ADD SWAP1 DUP2 MSTORE PUSH1 0x20 ADD PUSH1 0x0 KECCAK256 PUSH1 0x0 DUP3 DUP3 SLOAD PUSH2 0xEF3 SWAP2 SWAP1 PUSH2 0x29B5 JUMP JUMPDEST SWAP3 POP POP DUP2 SWAP1 SSTORE POP PUSH1 0x0 ISZERO ISZERO PUSH1 0x0 DUP1 DUP4 PUSH20 0xFFFFFFFFFFFFFFFFFFFFFFFFFFFFFFFFFFFFFFFF AND PUSH20 0xFFFFFFFFFFFFFFFFFFFFFFFFFFFFFFFFFFFFFFFF AND DUP2 MSTORE PUSH1 0x20 ADD SWAP1 DUP2 MSTORE PUSH1 0x20 ADD PUSH1 0x0 KECCAK256 PUSH1 0x0 SWAP1 SLOAD SWAP1 PUSH2 0x100 EXP SWAP1 DIV PUSH1 0xFF AND ISZERO ISZERO SUB PUSH2 0xFA9 JUMPI PUSH1 0x1 PUSH1 0x0 DUP1 DUP4 PUSH20 0xFFFFFFFFFFFFFFFFFFFFFFFFFFFFFFFFFFFFFFFF AND PUSH20 0xFFFFFFFFFFFFFFFFFFFFFFFFFFFFFFFFFFFFFFFF AND DUP2 MSTORE PUSH1 0x20 ADD SWAP1 DUP2 MSTORE PUSH1 0x20 ADD PUSH1 0x0 KECCAK256 PUSH1 0x0 PUSH2 0x100 EXP DUP2 SLOAD DUP2 PUSH1 0xFF MUL NOT AND SWAP1 DUP4 ISZERO ISZERO MUL OR SWAP1 SSTORE POP JUMPDEST DUP1 PUSH20 0xFFFFFFFFFFFFFFFFFFFFFFFFFFFFFFFFFFFFFFFF AND PUSH2 0x8FC DUP4 SWAP1 DUP2 ISZERO MUL SWAP1 PUSH1 0x40 MLOAD PUSH1 0x0 PUSH1 0x40 MLOAD DUP1 DUP4 SUB DUP2 DUP6 DUP9 DUP9 CALL SWAP4 POP POP POP POP ISZERO DUP1 ISZERO PUSH2 0xFEF JUMPI RETURNDATASIZE PUSH1 0x0 DUP1 RETURNDATACOPY RETURNDATASIZE PUSH1 0x0 REVERT JUMPDEST POP POP POP JUMP JUMPDEST PUSH1 0x7 SLOAD DUP2 JUMP JUMPDEST PUSH1 0xC PUSH1 0x0 SWAP1 SLOAD SWAP1 PUSH2 0x100 EXP SWAP1 DIV PUSH20 0xFFFFFFFFFFFFFFFFFFFFFFFFFFFFFFFFFFFFFFFF AND DUP2 JUMP JUMPDEST TIMESTAMP PUSH1 0x8 SLOAD LT ISZERO PUSH2 0x1065 JUMPI PUSH1 0x40 MLOAD PUSH32 0x8C379A000000000000000000000000000000000000000000000000000000000 DUP2 MSTORE PUSH1 0x4 ADD PUSH2 0x105C SWAP1 PUSH2 0x2A35 JUMP JUMPDEST PUSH1 0x40 MLOAD DUP1 SWAP2 SUB SWAP1 REVERT JUMPDEST PUSH1 0x0 CALLVALUE GT PUSH2 0x10A8 JUMPI PUSH1 0x40 MLOAD PUSH32 0x8C379A000000000000000000000000000000000000000000000000000000000 DUP2 MSTORE PUSH1 0x4 ADD PUSH2 0x109F SWAP1 PUSH2 0x2AC7 JUMP JUMPDEST PUSH1 0x40 MLOAD DUP1 SWAP2 SUB SWAP1 REVERT JUMPDEST PUSH1 0x1 PUSH1 0x0 DUP1 CALLER PUSH20 0xFFFFFFFFFFFFFFFFFFFFFFFFFFFFFFFFFFFFFFFF AND PUSH20 0xFFFFFFFFFFFFFFFFFFFFFFFFFFFFFFFFFFFFFFFF AND DUP2 MSTORE PUSH1 0x20 ADD SWAP1 DUP2 MSTORE PUSH1 0x20 ADD PUSH1 0x0 KECCAK256 PUSH1 0x0 PUSH2 0x100 EXP DUP2 SLOAD DUP2 PUSH1 0xFF MUL NOT AND SWAP1 DUP4 ISZERO ISZERO MUL OR SWAP1 SSTORE POP CALLVALUE PUSH1 0x1 PUSH1 0x0 CALLER PUSH20 0xFFFFFFFFFFFFFFFFFFFFFFFFFFFFFFFFFFFFFFFF AND PUSH20 0xFFFFFFFFFFFFFFFFFFFFFFFFFFFFFFFFFFFFFFFF AND DUP2 MSTORE PUSH1 0x20 ADD SWAP1 DUP2 MSTORE PUSH1 0x20 ADD PUSH1 0x0 KECCAK256 PUSH1 0x0 DUP3 DUP3 SLOAD PUSH2 0x114E SWAP2 SWAP1 PUSH2 0x29B5 JUMP JUMPDEST SWAP3 POP POP DUP2 SWAP1 SSTORE POP CALLVALUE PUSH1 0x6 PUSH1 0x0 DUP3 DUP3 SLOAD PUSH2 0x1167 SWAP2 SWAP1 PUSH2 0x29B5 JUMP JUMPDEST SWAP3 POP POP DUP2 SWAP1 SSTORE POP PUSH1 0x5 CALLER SWAP1 DUP1 PUSH1 0x1 DUP2 SLOAD ADD DUP1 DUP3 SSTORE DUP1 SWAP2 POP POP PUSH1 0x1 SWAP1 SUB SWAP1 PUSH1 0x0 MSTORE PUSH1 0x20 PUSH1 0x0 KECCAK256 ADD PUSH1 0x0 SWAP1 SWAP2 SWAP1 SWAP2 SWAP1 SWAP2 PUSH2 0x100 EXP DUP2 SLOAD DUP2 PUSH20 0xFFFFFFFFFFFFFFFFFFFFFFFFFFFFFFFFFFFFFFFF MUL NOT AND SWAP1 DUP4 PUSH20 0xFFFFFFFFFFFFFFFFFFFFFFFFFFFFFFFFFFFFFFFF AND MUL OR SWAP1 SSTORE POP CALLVALUE PUSH1 0x7 PUSH1 0x0 DUP3 DUP3 SLOAD PUSH2 0x11E3 SWAP2 SWAP1 PUSH2 0x29B5 JUMP JUMPDEST SWAP3 POP POP DUP2 SWAP1 SSTORE POP JUMP JUMPDEST PUSH1 0x1 PUSH1 0x20 MSTORE DUP1 PUSH1 0x0 MSTORE PUSH1 0x40 PUSH1 0x0 KECCAK256 PUSH1 0x0 SWAP2 POP SWAP1 POP SLOAD DUP2 JUMP JUMPDEST PUSH1 0x1 ISZERO ISZERO PUSH1 0x0 DUP1 CALLER PUSH20 0xFFFFFFFFFFFFFFFFFFFFFFFFFFFFFFFFFFFFFFFF AND PUSH20 0xFFFFFFFFFFFFFFFFFFFFFFFFFFFFFFFFFFFFFFFF AND DUP2 MSTORE PUSH1 0x20 ADD SWAP1 DUP2 MSTORE PUSH1 0x20 ADD PUSH1 0x0 KECCAK256 PUSH1 0x0 SWAP1 SLOAD SWAP1 PUSH2 0x100 EXP SWAP1 DIV PUSH1 0xFF AND ISZERO ISZERO EQ PUSH2 0x1296 JUMPI PUSH1 0x40 MLOAD PUSH32 0x8C379A000000000000000000000000000000000000000000000000000000000 DUP2 MSTORE PUSH1 0x4 ADD PUSH2 0x128D SWAP1 PUSH2 0x2897 JUMP JUMPDEST PUSH1 0x40 MLOAD DUP1 SWAP2 SUB SWAP1 REVERT JUMPDEST PUSH1 0x7 SLOAD DUP3 GT ISZERO PUSH2 0x12DB JUMPI PUSH1 0x40 MLOAD PUSH32 0x8C379A000000000000000000000000000000000000000000000000000000000 DUP2 MSTORE PUSH1 0x4 ADD PUSH2 0x12D2 SWAP1 PUSH2 0x2B33 JUMP JUMPDEST PUSH1 0x40 MLOAD DUP1 SWAP2 SUB SWAP1 REVERT JUMPDEST PUSH1 0x40 MLOAD DUP1 PUSH1 0xE0 ADD PUSH1 0x40 MSTORE DUP1 PUSH1 0x9 SLOAD DUP2 MSTORE PUSH1 0x20 ADD DUP5 DUP2 MSTORE PUSH1 0x20 ADD DUP4 DUP2 MSTORE PUSH1 0x20 ADD DUP3 PUSH20 0xFFFFFFFFFFFFFFFFFFFFFFFFFFFFFFFFFFFFFFFF AND DUP2 MSTORE PUSH1 0x20 ADD PUSH1 0x0 DUP2 MSTORE PUSH1 0x20 ADD PUSH1 0xA SLOAD TIMESTAMP PUSH2 0x132B SWAP2 SWAP1 PUSH2 0x29B5 JUMP JUMPDEST DUP2 MSTORE PUSH1 0x20 ADD PUSH1 0x0 ISZERO ISZERO DUP2 MSTORE POP PUSH1 0x4 PUSH1 0x0 PUSH1 0x9 SLOAD DUP2 MSTORE PUSH1 0x20 ADD SWAP1 DUP2 MSTORE PUSH1 0x20 ADD PUSH1 0x0 KECCAK256 PUSH1 0x0 DUP3 ADD MLOAD DUP2 PUSH1 0x0 ADD SSTORE PUSH1 0x20 DUP3 ADD MLOAD DUP2 PUSH1 0x1 ADD SWAP1 DUP2 PUSH2 0x136B SWAP2 SWAP1 PUSH2 0x2CFF JUMP JUMPDEST POP PUSH1 0x40 DUP3 ADD MLOAD DUP2 PUSH1 0x2 ADD SSTORE PUSH1 0x60 DUP3 ADD MLOAD DUP2 PUSH1 0x3 ADD PUSH1 0x0 PUSH2 0x100 EXP DUP2 SLOAD DUP2 PUSH20 0xFFFFFFFFFFFFFFFFFFFFFFFFFFFFFFFFFFFFFFFF MUL NOT AND SWAP1 DUP4 PUSH20 0xFFFFFFFFFFFFFFFFFFFFFFFFFFFFFFFFFFFFFFFF AND MUL OR SWAP1 SSTORE POP PUSH1 0x80 DUP3 ADD MLOAD DUP2 PUSH1 0x4 ADD SSTORE PUSH1 0xA0 DUP3 ADD MLOAD DUP2 PUSH1 0x5 ADD SSTORE PUSH1 0xC0 DUP3 ADD MLOAD DUP2 PUSH1 0x6 ADD PUSH1 0x0 PUSH2 0x100 EXP DUP2 SLOAD DUP2 PUSH1 0xFF MUL NOT AND SWAP1 DUP4 ISZERO ISZERO MUL OR SWAP1 SSTORE POP SWAP1 POP POP PUSH1 0x9 PUSH1 0x0 DUP2 SLOAD DUP1 SWAP3 SWAP2 SWAP1 PUSH2 0x1407 SWAP1 PUSH2 0x2803 JUMP JUMPDEST SWAP2 SWAP1 POP SSTORE POP POP POP POP JUMP JUMPDEST PUSH1 0x1 ISZERO ISZERO PUSH1 0x0 DUP1 CALLER PUSH20 0xFFFFFFFFFFFFFFFFFFFFFFFFFFFFFFFFFFFFFFFF AND PUSH20 0xFFFFFFFFFFFFFFFFFFFFFFFFFFFFFFFFFFFFFFFF AND DUP2 MSTORE PUSH1 0x20 ADD SWAP1 DUP2 MSTORE PUSH1 0x20 ADD PUSH1 0x0 KECCAK256 PUSH1 0x0 SWAP1 SLOAD SWAP1 PUSH2 0x100 EXP SWAP1 DIV PUSH1 0xFF AND ISZERO ISZERO EQ PUSH2 0x14A3 JUMPI PUSH1 0x40 MLOAD PUSH32 0x8C379A000000000000000000000000000000000000000000000000000000000 DUP2 MSTORE PUSH1 0x4 ADD PUSH2 0x149A SWAP1 PUSH2 0x2897 JUMP JUMPDEST PUSH1 0x40 MLOAD DUP1 SWAP2 SUB SWAP1 REVERT JUMPDEST PUSH1 0x0 ISZERO ISZERO PUSH1 0x2 PUSH1 0x0 CALLER PUSH20 0xFFFFFFFFFFFFFFFFFFFFFFFFFFFFFFFFFFFFFFFF AND PUSH20 0xFFFFFFFFFFFFFFFFFFFFFFFFFFFFFFFFFFFFFFFF AND DUP2 MSTORE PUSH1 0x20 ADD SWAP1 DUP2 MSTORE PUSH1 0x20 ADD PUSH1 0x0 KECCAK256 PUSH1 0x0 DUP4 DUP2 MSTORE PUSH1 0x20 ADD SWAP1 DUP2 MSTORE PUSH1 0x20 ADD PUSH1 0x0 KECCAK256 PUSH1 0x0 SWAP1 SLOAD SWAP1 PUSH2 0x100 EXP SWAP1 DIV PUSH1 0xFF AND ISZERO ISZERO EQ PUSH2 0x1547 JUMPI PUSH1 0x40 MLOAD PUSH32 0x8C379A000000000000000000000000000000000000000000000000000000000 DUP2 MSTORE PUSH1 0x4 ADD PUSH2 0x153E SWAP1 PUSH2 0x2E43 JUMP JUMPDEST PUSH1 0x40 MLOAD DUP1 SWAP2 SUB SWAP1 REVERT JUMPDEST TIMESTAMP PUSH1 0x4 PUSH1 0x0 DUP4 DUP2 MSTORE PUSH1 0x20 ADD SWAP1 DUP2 MSTORE PUSH1 0x20 ADD PUSH1 0x0 KECCAK256 PUSH1 0x5 ADD SLOAD LT ISZERO PUSH2 0x15A0 JUMPI PUSH1 0x40 MLOAD PUSH32 0x8C379A000000000000000000000000000000000000000000000000000000000 DUP2 MSTORE PUSH1 0x4 ADD PUSH2 0x1597 SWAP1 PUSH2 0x2ED5 JUMP JUMPDEST PUSH1 0x40 MLOAD DUP1 SWAP2 SUB SWAP1 REVERT JUMPDEST PUSH1 0x1 PUSH1 0x2 PUSH1 0x0 CALLER PUSH20 0xFFFFFFFFFFFFFFFFFFFFFFFFFFFFFFFFFFFFFFFF AND PUSH20 0xFFFFFFFFFFFFFFFFFFFFFFFFFFFFFFFFFFFFFFFF AND DUP2 MSTORE PUSH1 0x20 ADD SWAP1 DUP2 MSTORE PUSH1 0x20 ADD PUSH1 0x0 KECCAK256 PUSH1 0x0 DUP4 DUP2 MSTORE PUSH1 0x20 ADD SWAP1 DUP2 MSTORE PUSH1 0x20 ADD PUSH1 0x0 KECCAK256 PUSH1 0x0 PUSH2 0x100 EXP DUP2 SLOAD DUP2 PUSH1 0xFF MUL NOT AND SWAP1 DUP4 ISZERO ISZERO MUL OR SWAP1 SSTORE POP PUSH1 0x1 PUSH1 0x0 CALLER PUSH20 0xFFFFFFFFFFFFFFFFFFFFFFFFFFFFFFFFFFFFFFFF AND PUSH20 0xFFFFFFFFFFFFFFFFFFFFFFFFFFFFFFFFFFFFFFFF AND DUP2 MSTORE PUSH1 0x20 ADD SWAP1 DUP2 MSTORE PUSH1 0x20 ADD PUSH1 0x0 KECCAK256 SLOAD PUSH1 0x4 PUSH1 0x0 DUP4 DUP2 MSTORE PUSH1 0x20 ADD SWAP1 DUP2 MSTORE PUSH1 0x20 ADD PUSH1 0x0 KECCAK256 PUSH1 0x4 ADD PUSH1 0x0 DUP3 DUP3 SLOAD PUSH2 0x166E SWAP2 SWAP1 PUSH2 0x29B5 JUMP JUMPDEST SWAP3 POP POP DUP2 SWAP1 SSTORE POP POP JUMP JUMPDEST PUSH1 0x2 PUSH1 0x20 MSTORE DUP2 PUSH1 0x0 MSTORE PUSH1 0x40 PUSH1 0x0 KECCAK256 PUSH1 0x20 MSTORE DUP1 PUSH1 0x0 MSTORE PUSH1 0x40 PUSH1 0x0 KECCAK256 PUSH1 0x0 SWAP2 POP SWAP2 POP SWAP1 SLOAD SWAP1 PUSH2 0x100 EXP SWAP1 DIV PUSH1 0xFF AND DUP2 JUMP JUMPDEST PUSH1 0x60 PUSH1 0x5 DUP1 SLOAD DUP1 PUSH1 0x20 MUL PUSH1 0x20 ADD PUSH1 0x40 MLOAD SWAP1 DUP2 ADD PUSH1 0x40 MSTORE DUP1 SWAP3 SWAP2 SWAP1 DUP2 DUP2 MSTORE PUSH1 0x20 ADD DUP3 DUP1 SLOAD DUP1 ISZERO PUSH2 0x172B JUMPI PUSH1 0x20 MUL DUP3 ADD SWAP2 SWAP1 PUSH1 0x0 MSTORE PUSH1 0x20 PUSH1 0x0 KECCAK256 SWAP1 JUMPDEST DUP2 PUSH1 0x0 SWAP1 SLOAD SWAP1 PUSH2 0x100 EXP SWAP1 DIV PUSH20 0xFFFFFFFFFFFFFFFFFFFFFFFFFFFFFFFFFFFFFFFF AND PUSH20 0xFFFFFFFFFFFFFFFFFFFFFFFFFFFFFFFFFFFFFFFF AND DUP2 MSTORE PUSH1 0x20 ADD SWAP1 PUSH1 0x1 ADD SWAP1 DUP1 DUP4 GT PUSH2 0x16E1 JUMPI JUMPDEST POP POP POP POP POP SWAP1 POP SWAP1 JUMP JUMPDEST CALLER PUSH20 0xFFFFFFFFFFFFFFFFFFFFFFFFFFFFFFFFFFFFFFFF AND PUSH1 0xC PUSH1 0x0 SWAP1 SLOAD SWAP1 PUSH2 0x100 EXP SWAP1 DIV PUSH20 0xFFFFFFFFFFFFFFFFFFFFFFFFFFFFFFFFFFFFFFFF AND PUSH20 0xFFFFFFFFFFFFFFFFFFFFFFFFFFFFFFFFFFFFFFFF AND EQ PUSH2 0x17C5 JUMPI PUSH1 0x40 MLOAD PUSH32 0x8C379A000000000000000000000000000000000000000000000000000000000 DUP2 MSTORE PUSH1 0x4 ADD PUSH2 0x17BC SWAP1 PUSH2 0x256B JUMP JUMPDEST PUSH1 0x40 MLOAD DUP1 SWAP2 SUB SWAP1 REVERT JUMPDEST PUSH1 0x0 PUSH1 0x3 PUSH1 0x0 DUP4 PUSH20 0xFFFFFFFFFFFFFFFFFFFFFFFFFFFFFFFFFFFFFFFF AND PUSH20 0xFFFFFFFFFFFFFFFFFFFFFFFFFFFFFFFFFFFFFFFF AND DUP2 MSTORE PUSH1 0x20 ADD SWAP1 DUP2 MSTORE PUSH1 0x20 ADD PUSH1 0x0 KECCAK256 PUSH1 0x0 PUSH2 0x100 EXP DUP2 SLOAD DUP2 PUSH1 0xFF MUL NOT AND SWAP1 DUP4 ISZERO ISZERO MUL OR SWAP1 SSTORE POP POP JUMP JUMPDEST PUSH1 0x1 ISZERO ISZERO PUSH1 0x0 DUP1 CALLER PUSH20 0xFFFFFFFFFFFFFFFFFFFFFFFFFFFFFFFFFFFFFFFF AND PUSH20 0xFFFFFFFFFFFFFFFFFFFFFFFFFFFFFFFFFFFFFFFF AND DUP2 MSTORE PUSH1 0x20 ADD SWAP1 DUP2 MSTORE PUSH1 0x20 ADD PUSH1 0x0 KECCAK256 PUSH1 0x0 SWAP1 SLOAD SWAP1 PUSH2 0x100 EXP SWAP1 DIV PUSH1 0xFF AND ISZERO ISZERO EQ PUSH2 0x18B2 JUMPI PUSH1 0x40 MLOAD PUSH32 0x8C379A000000000000000000000000000000000000000000000000000000000 DUP2 MSTORE PUSH1 0x4 ADD PUSH2 0x18A9 SWAP1 PUSH2 0x2897 JUMP JUMPDEST PUSH1 0x40 MLOAD DUP1 SWAP2 SUB SWAP1 REVERT JUMPDEST DUP1 PUSH1 0x1 PUSH1 0x0 CALLER PUSH20 0xFFFFFFFFFFFFFFFFFFFFFFFFFFFFFFFFFFFFFFFF AND PUSH20 0xFFFFFFFFFFFFFFFFFFFFFFFFFFFFFFFFFFFFFFFF AND DUP2 MSTORE PUSH1 0x20 ADD SWAP1 DUP2 MSTORE PUSH1 0x20 ADD PUSH1 0x0 KECCAK256 SLOAD LT ISZERO PUSH2 0x1934 JUMPI PUSH1 0x40 MLOAD PUSH32 0x8C379A000000000000000000000000000000000000000000000000000000000 DUP2 MSTORE PUSH1 0x4 ADD PUSH2 0x192B SWAP1 PUSH2 0x2929 JUMP JUMPDEST PUSH1 0x40 MLOAD DUP1 SWAP2 SUB SWAP1 REVERT JUMPDEST DUP1 PUSH1 0x7 SLOAD LT ISZERO PUSH2 0x1979 JUMPI PUSH1 0x40 MLOAD PUSH32 0x8C379A000000000000000000000000000000000000000000000000000000000 DUP2 MSTORE PUSH1 0x4 ADD PUSH2 0x1970 SWAP1 PUSH2 0x2995 JUMP JUMPDEST PUSH1 0x40 MLOAD DUP1 SWAP2 SUB SWAP1 REVERT JUMPDEST DUP1 PUSH1 0x1 PUSH1 0x0 CALLER PUSH20 0xFFFFFFFFFFFFFFFFFFFFFFFFFFFFFFFFFFFFFFFF AND PUSH20 0xFFFFFFFFFFFFFFFFFFFFFFFFFFFFFFFFFFFFFFFF AND DUP2 MSTORE PUSH1 0x20 ADD SWAP1 DUP2 MSTORE PUSH1 0x20 ADD PUSH1 0x0 KECCAK256 PUSH1 0x0 DUP3 DUP3 SLOAD PUSH2 0x19C8 SWAP2 SWAP1 PUSH2 0x27A0 JUMP JUMPDEST SWAP3 POP POP DUP2 SWAP1 SSTORE POP PUSH1 0x0 PUSH1 0x1 PUSH1 0x0 CALLER PUSH20 0xFFFFFFFFFFFFFFFFFFFFFFFFFFFFFFFFFFFFFFFF AND PUSH20 0xFFFFFFFFFFFFFFFFFFFFFFFFFFFFFFFFFFFFFFFF AND DUP2 MSTORE PUSH1 0x20 ADD SWAP1 DUP2 MSTORE PUSH1 0x20 ADD PUSH1 0x0 KECCAK256 SLOAD SUB PUSH2 0x1A6E JUMPI PUSH1 0x0 DUP1 PUSH1 0x0 CALLER PUSH20 0xFFFFFFFFFFFFFFFFFFFFFFFFFFFFFFFFFFFFFFFF AND PUSH20 0xFFFFFFFFFFFFFFFFFFFFFFFFFFFFFFFFFFFFFFFF AND DUP2 MSTORE PUSH1 0x20 ADD SWAP1 DUP2 MSTORE PUSH1 0x20 ADD PUSH1 0x0 KECCAK256 PUSH1 0x0 PUSH2 0x100 EXP DUP2 SLOAD DUP2 PUSH1 0xFF MUL NOT AND SWAP1 DUP4 ISZERO ISZERO MUL OR SWAP1 SSTORE POP JUMPDEST DUP1 PUSH1 0x7 PUSH1 0x0 DUP3 DUP3 SLOAD PUSH2 0x1A80 SWAP2 SWAP1 PUSH2 0x27A0 JUMP JUMPDEST SWAP3 POP POP DUP2 SWAP1 SSTORE POP CALLER PUSH20 0xFFFFFFFFFFFFFFFFFFFFFFFFFFFFFFFFFFFFFFFF AND PUSH2 0x8FC DUP3 SWAP1 DUP2 ISZERO MUL SWAP1 PUSH1 0x40 MLOAD PUSH1 0x0 PUSH1 0x40 MLOAD DUP1 DUP4 SUB DUP2 DUP6 DUP9 DUP9 CALL SWAP4 POP POP POP POP ISZERO DUP1 ISZERO PUSH2 0x1ACD JUMPI RETURNDATASIZE PUSH1 0x0 DUP1 RETURNDATACOPY RETURNDATASIZE PUSH1 0x0 REVERT JUMPDEST POP POP JUMP JUMPDEST PUSH1 0xA SLOAD DUP2 JUMP JUMPDEST PUSH1 0x0 PUSH1 0x20 MSTORE DUP1 PUSH1 0x0 MSTORE PUSH1 0x40 PUSH1 0x0 KECCAK256 PUSH1 0x0 SWAP2 POP SLOAD SWAP1 PUSH2 0x100 EXP SWAP1 DIV PUSH1 0xFF AND DUP2 JUMP JUMPDEST PUSH1 0x8 SLOAD DUP2 JUMP JUMPDEST CALLER PUSH20 0xFFFFFFFFFFFFFFFFFFFFFFFFFFFFFFFFFFFFFFFF AND PUSH1 0xC PUSH1 0x0 SWAP1 SLOAD SWAP1 PUSH2 0x100 EXP SWAP1 DIV PUSH20 0xFFFFFFFFFFFFFFFFFFFFFFFFFFFFFFFFFFFFFFFF AND PUSH20 0xFFFFFFFFFFFFFFFFFFFFFFFFFFFFFFFFFFFFFFFF AND EQ PUSH2 0x1B8D JUMPI PUSH1 0x40 MLOAD PUSH32 0x8C379A000000000000000000000000000000000000000000000000000000000 DUP2 MSTORE PUSH1 0x4 ADD PUSH2 0x1B84 SWAP1 PUSH2 0x256B JUMP JUMPDEST PUSH1 0x40 MLOAD DUP1 SWAP2 SUB SWAP1 REVERT JUMPDEST PUSH1 0x1 PUSH1 0x3 PUSH1 0x0 DUP4 PUSH20 0xFFFFFFFFFFFFFFFFFFFFFFFFFFFFFFFFFFFFFFFF AND PUSH20 0xFFFFFFFFFFFFFFFFFFFFFFFFFFFFFFFFFFFFFFFF AND DUP2 MSTORE PUSH1 0x20 ADD SWAP1 DUP2 MSTORE PUSH1 0x20 ADD PUSH1 0x0 KECCAK256 PUSH1 0x0 PUSH2 0x100 EXP DUP2 SLOAD DUP2 PUSH1 0xFF MUL NOT AND SWAP1 DUP4 ISZERO ISZERO MUL OR SWAP1 SSTORE POP POP JUMP JUMPDEST PUSH1 0x7 SLOAD DUP3 LT PUSH2 0x1C2C JUMPI PUSH1 0x40 MLOAD PUSH32 0x8C379A000000000000000000000000000000000000000000000000000000000 DUP2 MSTORE PUSH1 0x4 ADD PUSH2 0x1C23 SWAP1 PUSH2 0x2F41 JUMP JUMPDEST PUSH1 0x40 MLOAD DUP1 SWAP2 SUB SWAP1 REVERT JUMPDEST DUP2 PUSH1 0x7 PUSH1 0x0 DUP3 DUP3 SLOAD PUSH2 0x1C3E SWAP2 SWAP1 PUSH2 0x27A0 JUMP JUMPDEST SWAP3 POP POP DUP2 SWAP1 SSTORE POP DUP1 PUSH20 0xFFFFFFFFFFFFFFFFFFFFFFFFFFFFFFFFFFFFFFFF AND PUSH2 0x8FC DUP4 SWAP1 DUP2 ISZERO MUL SWAP1 PUSH1 0x40 MLOAD PUSH1 0x0 PUSH1 0x40 MLOAD DUP1 DUP4 SUB DUP2 DUP6 DUP9 DUP9 CALL SWAP4 POP POP POP POP ISZERO DUP1 ISZERO PUSH2 0x1C8B JUMPI RETURNDATASIZE PUSH1 0x0 DUP1 RETURNDATACOPY RETURNDATASIZE PUSH1 0x0 REVERT JUMPDEST POP POP POP JUMP JUMPDEST PUSH1 0x40 MLOAD DUP1 PUSH1 0xE0 ADD PUSH1 0x40 MSTORE DUP1 PUSH1 0x0 DUP2 MSTORE PUSH1 0x20 ADD PUSH1 0x60 DUP2 MSTORE PUSH1 0x20 ADD PUSH1 0x0 DUP2 MSTORE PUSH1 0x20 ADD PUSH1 0x0 PUSH20 0xFFFFFFFFFFFFFFFFFFFFFFFFFFFFFFFFFFFFFFFF AND DUP2 MSTORE PUSH1 0x20 ADD PUSH1 0x0 DUP2 MSTORE PUSH1 0x20 ADD PUSH1 0x0 DUP2 MSTORE PUSH1 0x20 ADD PUSH1 0x0 ISZERO ISZERO DUP2 MSTORE POP SWAP1 JUMP JUMPDEST PUSH1 0x0 PUSH1 0x40 MLOAD SWAP1 POP SWAP1 JUMP JUMPDEST PUSH1 0x0 DUP1 REVERT JUMPDEST PUSH1 0x0 DUP1 REVERT JUMPDEST PUSH1 0x0 DUP2 SWAP1 POP SWAP2 SWAP1 POP JUMP JUMPDEST PUSH2 0x1D0C DUP2 PUSH2 0x1CF9 JUMP JUMPDEST DUP2 EQ PUSH2 0x1D17 JUMPI PUSH1 0x0 DUP1 REVERT JUMPDEST POP JUMP JUMPDEST PUSH1 0x0 DUP2 CALLDATALOAD SWAP1 POP PUSH2 0x1D29 DUP2 PUSH2 0x1D03 JUMP JUMPDEST SWAP3 SWAP2 POP POP JUMP JUMPDEST PUSH1 0x0 PUSH1 0x20 DUP3 DUP5 SUB SLT ISZERO PUSH2 0x1D45 JUMPI PUSH2 0x1D44 PUSH2 0x1CEF JUMP JUMPDEST JUMPDEST PUSH1 0x0 PUSH2 0x1D53 DUP5 DUP3 DUP6 ADD PUSH2 0x1D1A JUMP JUMPDEST SWAP2 POP POP SWAP3 SWAP2 POP POP JUMP JUMPDEST PUSH2 0x1D65 DUP2 PUSH2 0x1CF9 JUMP JUMPDEST DUP3 MSTORE POP POP JUMP JUMPDEST PUSH1 0x0 DUP2 MLOAD SWAP1 POP SWAP2 SWAP1 POP JUMP JUMPDEST PUSH1 0x0 DUP3 DUP3 MSTORE PUSH1 0x20 DUP3 ADD SWAP1 POP SWAP3 SWAP2 POP POP JUMP JUMPDEST PUSH1 0x0 JUMPDEST DUP4 DUP2 LT ISZERO PUSH2 0x1DA5 JUMPI DUP1 DUP3 ADD MLOAD DUP2 DUP5 ADD MSTORE PUSH1 0x20 DUP2 ADD SWAP1 POP PUSH2 0x1D8A JUMP JUMPDEST PUSH1 0x0 DUP5 DUP5 ADD MSTORE POP POP POP POP JUMP JUMPDEST PUSH1 0x0 PUSH1 0x1F NOT PUSH1 0x1F DUP4 ADD AND SWAP1 POP SWAP2 SWAP1 POP JUMP JUMPDEST PUSH1 0x0 PUSH2 0x1DCD DUP3 PUSH2 0x1D6B JUMP JUMPDEST PUSH2 0x1DD7 DUP2 DUP6 PUSH2 0x1D76 JUMP JUMPDEST SWAP4 POP PUSH2 0x1DE7 DUP2 DUP6 PUSH1 0x20 DUP7 ADD PUSH2 0x1D87 JUMP JUMPDEST PUSH2 0x1DF0 DUP2 PUSH2 0x1DB1 JUMP JUMPDEST DUP5 ADD SWAP2 POP POP SWAP3 SWAP2 POP POP JUMP JUMPDEST PUSH1 0x0 PUSH20 0xFFFFFFFFFFFFFFFFFFFFFFFFFFFFFFFFFFFFFFFF DUP3 AND SWAP1 POP SWAP2 SWAP1 POP JUMP JUMPDEST PUSH1 0x0 PUSH2 0x1E26 DUP3 PUSH2 0x1DFB JUMP JUMPDEST SWAP1 POP SWAP2 SWAP1 POP JUMP JUMPDEST PUSH2 0x1E36 DUP2 PUSH2 0x1E1B JUMP JUMPDEST DUP3 MSTORE POP POP JUMP JUMPDEST PUSH1 0x0 DUP2 ISZERO ISZERO SWAP1 POP SWAP2 SWAP1 POP JUMP JUMPDEST PUSH2 0x1E51 DUP2 PUSH2 0x1E3C JUMP JUMPDEST DUP3 MSTORE POP POP JUMP JUMPDEST PUSH1 0x0 PUSH1 0xE0 DUP3 ADD SWAP1 POP PUSH2 0x1E6C PUSH1 0x0 DUP4 ADD DUP11 PUSH2 0x1D5C JUMP JUMPDEST DUP2 DUP2 SUB PUSH1 0x20 DUP4 ADD MSTORE PUSH2 0x1E7E DUP2 DUP10 PUSH2 0x1DC2 JUMP JUMPDEST SWAP1 POP PUSH2 0x1E8D PUSH1 0x40 DUP4 ADD DUP9 PUSH2 0x1D5C JUMP JUMPDEST PUSH2 0x1E9A PUSH1 0x60 DUP4 ADD DUP8 PUSH2 0x1E2D JUMP JUMPDEST PUSH2 0x1EA7 PUSH1 0x80 DUP4 ADD DUP7 PUSH2 0x1D5C JUMP JUMPDEST PUSH2 0x1EB4 PUSH1 0xA0 DUP4 ADD DUP6 PUSH2 0x1D5C JUMP JUMPDEST PUSH2 0x1EC1 PUSH1 0xC0 DUP4 ADD DUP5 PUSH2 0x1E48 JUMP JUMPDEST SWAP9 SWAP8 POP POP POP POP POP POP POP POP JUMP JUMPDEST PUSH1 0x0 PUSH2 0x1ED8 DUP3 PUSH2 0x1DFB JUMP JUMPDEST SWAP1 POP SWAP2 SWAP1 POP JUMP JUMPDEST PUSH2 0x1EE8 DUP2 PUSH2 0x1ECD JUMP JUMPDEST DUP2 EQ PUSH2 0x1EF3 JUMPI PUSH1 0x0 DUP1 REVERT JUMPDEST POP JUMP JUMPDEST PUSH1 0x0 DUP2 CALLDATALOAD SWAP1 POP PUSH2 0x1F05 DUP2 PUSH2 0x1EDF JUMP JUMPDEST SWAP3 SWAP2 POP POP JUMP JUMPDEST PUSH1 0x0 PUSH1 0x20 DUP3 DUP5 SUB SLT ISZERO PUSH2 0x1F21 JUMPI PUSH2 0x1F20 PUSH2 0x1CEF JUMP JUMPDEST JUMPDEST PUSH1 0x0 PUSH2 0x1F2F DUP5 DUP3 DUP6 ADD PUSH2 0x1EF6 JUMP JUMPDEST SWAP2 POP POP SWAP3 SWAP2 POP POP JUMP JUMPDEST PUSH1 0x0 PUSH1 0x20 DUP3 ADD SWAP1 POP PUSH2 0x1F4D PUSH1 0x0 DUP4 ADD DUP5 PUSH2 0x1E48 JUMP JUMPDEST SWAP3 SWAP2 POP POP JUMP JUMPDEST PUSH1 0x0 PUSH1 0x20 DUP3 ADD SWAP1 POP PUSH2 0x1F68 PUSH1 0x0 DUP4 ADD DUP5 PUSH2 0x1D5C JUMP JUMPDEST SWAP3 SWAP2 POP POP JUMP JUMPDEST PUSH2 0x1F77 DUP2 PUSH2 0x1ECD JUMP JUMPDEST DUP3 MSTORE POP POP JUMP JUMPDEST PUSH1 0x0 PUSH1 0x20 DUP3 ADD SWAP1 POP PUSH2 0x1F92 PUSH1 0x0 DUP4 ADD DUP5 PUSH2 0x1F6E JUMP JUMPDEST SWAP3 SWAP2 POP POP JUMP JUMPDEST PUSH1 0x0 DUP2 MLOAD SWAP1 POP SWAP2 SWAP1 POP JUMP JUMPDEST PUSH1 0x0 DUP3 DUP3 MSTORE PUSH1 0x20 DUP3 ADD SWAP1 POP SWAP3 SWAP2 POP POP JUMP JUMPDEST PUSH1 0x0 DUP2 SWAP1 POP PUSH1 0x20 DUP3 ADD SWAP1 POP SWAP2 SWAP1 POP JUMP JUMPDEST PUSH2 0x1FCD DUP2 PUSH2 0x1CF9 JUMP JUMPDEST DUP3 MSTORE POP POP JUMP JUMPDEST PUSH1 0x0 DUP3 DUP3 MSTORE PUSH1 0x20 DUP3 ADD SWAP1 POP SWAP3 SWAP2 POP POP JUMP JUMPDEST PUSH1 0x0 PUSH2 0x1FEF DUP3 PUSH2 0x1D6B JUMP JUMPDEST PUSH2 0x1FF9 DUP2 DUP6 PUSH2 0x1FD3 JUMP JUMPDEST SWAP4 POP PUSH2 0x2009 DUP2 DUP6 PUSH1 0x20 DUP7 ADD PUSH2 0x1D87 JUMP JUMPDEST PUSH2 0x2012 DUP2 PUSH2 0x1DB1 JUMP JUMPDEST DUP5 ADD SWAP2 POP POP SWAP3 SWAP2 POP POP JUMP JUMPDEST PUSH2 0x2026 DUP2 PUSH2 0x1E1B JUMP JUMPDEST DUP3 MSTORE POP POP JUMP JUMPDEST PUSH2 0x2035 DUP2 PUSH2 0x1E3C JUMP JUMPDEST DUP3 MSTORE POP POP JUMP JUMPDEST PUSH1 0x0 PUSH1 0xE0 DUP4 ADD PUSH1 0x0 DUP4 ADD MLOAD PUSH2 0x2053 PUSH1 0x0 DUP7 ADD DUP3 PUSH2 0x1FC4 JUMP JUMPDEST POP PUSH1 0x20 DUP4 ADD MLOAD DUP5 DUP3 SUB PUSH1 0x20 DUP7 ADD MSTORE PUSH2 0x206B DUP3 DUP3 PUSH2 0x1FE4 JUMP JUMPDEST SWAP2 POP POP PUSH1 0x40 DUP4 ADD MLOAD PUSH2 0x2080 PUSH1 0x40 DUP7 ADD DUP3 PUSH2 0x1FC4 JUMP JUMPDEST POP PUSH1 0x60 DUP4 ADD MLOAD PUSH2 0x2093 PUSH1 0x60 DUP7 ADD DUP3 PUSH2 0x201D JUMP JUMPDEST POP PUSH1 0x80 DUP4 ADD MLOAD PUSH2 0x20A6 PUSH1 0x80 DUP7 ADD DUP3 PUSH2 0x1FC4 JUMP JUMPDEST POP PUSH1 0xA0 DUP4 ADD MLOAD PUSH2 0x20B9 PUSH1 0xA0 DUP7 ADD DUP3 PUSH2 0x1FC4 JUMP JUMPDEST POP PUSH1 0xC0 DUP4 ADD MLOAD PUSH2 0x20CC PUSH1 0xC0 DUP7 ADD DUP3 PUSH2 0x202C JUMP JUMPDEST POP DUP1 SWAP2 POP POP SWAP3 SWAP2 POP POP JUMP JUMPDEST PUSH1 0x0 PUSH2 0x20E3 DUP4 DUP4 PUSH2 0x203B JUMP JUMPDEST SWAP1 POP SWAP3 SWAP2 POP POP JUMP JUMPDEST PUSH1 0x0 PUSH1 0x20 DUP3 ADD SWAP1 POP SWAP2 SWAP1 POP JUMP JUMPDEST PUSH1 0x0 PUSH2 0x2103 DUP3 PUSH2 0x1F98 JUMP JUMPDEST PUSH2 0x210D DUP2 DUP6 PUSH2 0x1FA3 JUMP JUMPDEST SWAP4 POP DUP4 PUSH1 0x20 DUP3 MUL DUP6 ADD PUSH2 0x211F DUP6 PUSH2 0x1FB4 JUMP JUMPDEST DUP1 PUSH1 0x0 JUMPDEST DUP6 DUP2 LT ISZERO PUSH2 0x215B JUMPI DUP5 DUP5 SUB DUP10 MSTORE DUP2 MLOAD PUSH2 0x213C DUP6 DUP3 PUSH2 0x20D7 JUMP JUMPDEST SWAP5 POP PUSH2 0x2147 DUP4 PUSH2 0x20EB JUMP JUMPDEST SWAP3 POP PUSH1 0x20 DUP11 ADD SWAP10 POP POP PUSH1 0x1 DUP2 ADD SWAP1 POP PUSH2 0x2123 JUMP JUMPDEST POP DUP3 SWAP8 POP DUP8 SWAP6 POP POP POP POP POP POP SWAP3 SWAP2 POP POP JUMP JUMPDEST PUSH1 0x0 PUSH1 0x20 DUP3 ADD SWAP1 POP DUP2 DUP2 SUB PUSH1 0x0 DUP4 ADD MSTORE PUSH2 0x2187 DUP2 DUP5 PUSH2 0x20F8 JUMP JUMPDEST SWAP1 POP SWAP3 SWAP2 POP POP JUMP JUMPDEST PUSH1 0x0 DUP1 PUSH1 0x40 DUP4 DUP6 SUB SLT ISZERO PUSH2 0x21A6 JUMPI PUSH2 0x21A5 PUSH2 0x1CEF JUMP JUMPDEST JUMPDEST PUSH1 0x0 PUSH2 0x21B4 DUP6 DUP3 DUP7 ADD PUSH2 0x1D1A JUMP JUMPDEST SWAP3 POP POP PUSH1 0x20 PUSH2 0x21C5 DUP6 DUP3 DUP7 ADD PUSH2 0x1EF6 JUMP JUMPDEST SWAP2 POP POP SWAP3 POP SWAP3 SWAP1 POP JUMP JUMPDEST PUSH1 0x0 DUP1 REVERT JUMPDEST PUSH1 0x0 DUP1 REVERT JUMPDEST PUSH32 0x4E487B7100000000000000000000000000000000000000000000000000000000 PUSH1 0x0 MSTORE PUSH1 0x41 PUSH1 0x4 MSTORE PUSH1 0x24 PUSH1 0x0 REVERT JUMPDEST PUSH2 0x2211 DUP3 PUSH2 0x1DB1 JUMP JUMPDEST DUP2 ADD DUP2 DUP2 LT PUSH8 0xFFFFFFFFFFFFFFFF DUP3 GT OR ISZERO PUSH2 0x2230 JUMPI PUSH2 0x222F PUSH2 0x21D9 JUMP JUMPDEST JUMPDEST DUP1 PUSH1 0x40 MSTORE POP POP POP JUMP JUMPDEST PUSH1 0x0 PUSH2 0x2243 PUSH2 0x1CE5 JUMP JUMPDEST SWAP1 POP PUSH2 0x224F DUP3 DUP3 PUSH2 0x2208 JUMP JUMPDEST SWAP2 SWAP1 POP JUMP JUMPDEST PUSH1 0x0 PUSH8 0xFFFFFFFFFFFFFFFF DUP3 GT ISZERO PUSH2 0x226F JUMPI PUSH2 0x226E PUSH2 0x21D9 JUMP JUMPDEST JUMPDEST PUSH2 0x2278 DUP3 PUSH2 0x1DB1 JUMP JUMPDEST SWAP1 POP PUSH1 0x20 DUP2 ADD SWAP1 POP SWAP2 SWAP1 POP JUMP JUMPDEST DUP3 DUP2 DUP4 CALLDATACOPY PUSH1 0x0 DUP4 DUP4 ADD MSTORE POP POP POP JUMP JUMPDEST PUSH1 0x0 PUSH2 0x22A7 PUSH2 0x22A2 DUP5 PUSH2 0x2254 JUMP JUMPDEST PUSH2 0x2239 JUMP JUMPDEST SWAP1 POP DUP3 DUP2 MSTORE PUSH1 0x20 DUP2 ADD DUP5 DUP5 DUP5 ADD GT ISZERO PUSH2 0x22C3 JUMPI PUSH2 0x22C2 PUSH2 0x21D4 JUMP JUMPDEST JUMPDEST PUSH2 0x22CE DUP5 DUP3 DUP6 PUSH2 0x2285 JUMP JUMPDEST POP SWAP4 SWAP3 POP POP POP JUMP JUMPDEST PUSH1 0x0 DUP3 PUSH1 0x1F DUP4 ADD SLT PUSH2 0x22EB JUMPI PUSH2 0x22EA PUSH2 0x21CF JUMP JUMPDEST JUMPDEST DUP2 CALLDATALOAD PUSH2 0x22FB DUP5 DUP3 PUSH1 0x20 DUP7 ADD PUSH2 0x2294 JUMP JUMPDEST SWAP2 POP POP SWAP3 SWAP2 POP POP JUMP JUMPDEST PUSH2 0x230D DUP2 PUSH2 0x1E1B JUMP JUMPDEST DUP2 EQ PUSH2 0x2318 JUMPI PUSH1 0x0 DUP1 REVERT JUMPDEST POP JUMP JUMPDEST PUSH1 0x0 DUP2 CALLDATALOAD SWAP1 POP PUSH2 0x232A DUP2 PUSH2 0x2304 JUMP JUMPDEST SWAP3 SWAP2 POP POP JUMP JUMPDEST PUSH1 0x0 DUP1 PUSH1 0x0 PUSH1 0x60 DUP5 DUP7 SUB SLT ISZERO PUSH2 0x2349 JUMPI PUSH2 0x2348 PUSH2 0x1CEF JUMP JUMPDEST JUMPDEST PUSH1 0x0 DUP5 ADD CALLDATALOAD PUSH8 0xFFFFFFFFFFFFFFFF DUP2 GT ISZERO PUSH2 0x2367 JUMPI PUSH2 0x2366 PUSH2 0x1CF4 JUMP JUMPDEST JUMPDEST PUSH2 0x2373 DUP7 DUP3 DUP8 ADD PUSH2 0x22D6 JUMP JUMPDEST SWAP4 POP POP PUSH1 0x20 PUSH2 0x2384 DUP7 DUP3 DUP8 ADD PUSH2 0x1D1A JUMP JUMPDEST SWAP3 POP POP PUSH1 0x40 PUSH2 0x2395 DUP7 DUP3 DUP8 ADD PUSH2 0x231B JUMP JUMPDEST SWAP2 POP POP SWAP3 POP SWAP3 POP SWAP3 JUMP JUMPDEST PUSH1 0x0 DUP1 PUSH1 0x40 DUP4 DUP6 SUB SLT ISZERO PUSH2 0x23B6 JUMPI PUSH2 0x23B5 PUSH2 0x1CEF JUMP JUMPDEST JUMPDEST PUSH1 0x0 PUSH2 0x23C4 DUP6 DUP3 DUP7 ADD PUSH2 0x1EF6 JUMP JUMPDEST SWAP3 POP POP PUSH1 0x20 PUSH2 0x23D5 DUP6 DUP3 DUP7 ADD PUSH2 0x1D1A JUMP JUMPDEST SWAP2 POP POP SWAP3 POP SWAP3 SWAP1 POP JUMP JUMPDEST PUSH1 0x0 DUP2 MLOAD SWAP1 POP SWAP2 SWAP1 POP JUMP JUMPDEST PUSH1 0x0 DUP3 DUP3 MSTORE PUSH1 0x20 DUP3 ADD SWAP1 POP SWAP3 SWAP2 POP POP JUMP JUMPDEST PUSH1 0x0 DUP2 SWAP1 POP PUSH1 0x20 DUP3 ADD SWAP1 POP SWAP2 SWAP1 POP JUMP JUMPDEST PUSH2 0x2414 DUP2 PUSH2 0x1ECD JUMP JUMPDEST DUP3 MSTORE POP POP JUMP JUMPDEST PUSH1 0x0 PUSH2 0x2426 DUP4 DUP4 PUSH2 0x240B JUMP JUMPDEST PUSH1 0x20 DUP4 ADD SWAP1 POP SWAP3 SWAP2 POP POP JUMP JUMPDEST PUSH1 0x0 PUSH1 0x20 DUP3 ADD SWAP1 POP SWAP2 SWAP1 POP JUMP JUMPDEST PUSH1 0x0 PUSH2 0x244A DUP3 PUSH2 0x23DF JUMP JUMPDEST PUSH2 0x2454 DUP2 DUP6 PUSH2 0x23EA JUMP JUMPDEST SWAP4 POP PUSH2 0x245F DUP4 PUSH2 0x23FB JUMP JUMPDEST DUP1 PUSH1 0x0 JUMPDEST DUP4 DUP2 LT ISZERO PUSH2 0x2490 JUMPI DUP2 MLOAD PUSH2 0x2477 DUP9 DUP3 PUSH2 0x241A JUMP JUMPDEST SWAP8 POP PUSH2 0x2482 DUP4 PUSH2 0x2432 JUMP JUMPDEST SWAP3 POP POP PUSH1 0x1 DUP2 ADD SWAP1 POP PUSH2 0x2463 JUMP JUMPDEST POP DUP6 SWAP4 POP POP POP POP SWAP3 SWAP2 POP POP JUMP JUMPDEST PUSH1 0x0 PUSH1 0x20 DUP3 ADD SWAP1 POP DUP2 DUP2 SUB PUSH1 0x0 DUP4 ADD MSTORE PUSH2 0x24B7 DUP2 DUP5 PUSH2 0x243F JUMP JUMPDEST SWAP1 POP SWAP3 SWAP2 POP POP JUMP JUMPDEST PUSH32 0x4E487B7100000000000000000000000000000000000000000000000000000000 PUSH1 0x0 MSTORE PUSH1 0x22 PUSH1 0x4 MSTORE PUSH1 0x24 PUSH1 0x0 REVERT JUMPDEST PUSH1 0x0 PUSH1 0x2 DUP3 DIV SWAP1 POP PUSH1 0x1 DUP3 AND DUP1 PUSH2 0x2506 JUMPI PUSH1 0x7F DUP3 AND SWAP2 POP JUMPDEST PUSH1 0x20 DUP3 LT DUP2 SUB PUSH2 0x2519 JUMPI PUSH2 0x2518 PUSH2 0x24BF JUMP JUMPDEST JUMPDEST POP SWAP2 SWAP1 POP JUMP JUMPDEST PUSH32 0x796F7520617265206E6F742061206D616E616765720000000000000000000000 PUSH1 0x0 DUP3 ADD MSTORE POP JUMP JUMPDEST PUSH1 0x0 PUSH2 0x2555 PUSH1 0x15 DUP4 PUSH2 0x1D76 JUMP JUMPDEST SWAP2 POP PUSH2 0x2560 DUP3 PUSH2 0x251F JUMP JUMPDEST PUSH1 0x20 DUP3 ADD SWAP1 POP SWAP2 SWAP1 POP JUMP JUMPDEST PUSH1 0x0 PUSH1 0x20 DUP3 ADD SWAP1 POP DUP2 DUP2 SUB PUSH1 0x0 DUP4 ADD MSTORE PUSH2 0x2584 DUP2 PUSH2 0x2548 JUMP JUMPDEST SWAP1 POP SWAP2 SWAP1 POP JUMP JUMPDEST PUSH32 0x4E487B7100000000000000000000000000000000000000000000000000000000 PUSH1 0x0 MSTORE PUSH1 0x11 PUSH1 0x4 MSTORE PUSH1 0x24 PUSH1 0x0 REVERT JUMPDEST PUSH1 0x0 PUSH2 0x25C5 DUP3 PUSH2 0x1CF9 JUMP JUMPDEST SWAP2 POP PUSH2 0x25D0 DUP4 PUSH2 0x1CF9 JUMP JUMPDEST SWAP3 POP DUP3 DUP3 MUL PUSH2 0x25DE DUP2 PUSH2 0x1CF9 JUMP JUMPDEST SWAP2 POP DUP3 DUP3 DIV DUP5 EQ DUP4 ISZERO OR PUSH2 0x25F5 JUMPI PUSH2 0x25F4 PUSH2 0x258B JUMP JUMPDEST JUMPDEST POP SWAP3 SWAP2 POP POP JUMP JUMPDEST PUSH32 0x4E487B7100000000000000000000000000000000000000000000000000000000 PUSH1 0x0 MSTORE PUSH1 0x12 PUSH1 0x4 MSTORE PUSH1 0x24 PUSH1 0x0 REVERT JUMPDEST PUSH1 0x0 PUSH2 0x2636 DUP3 PUSH2 0x1CF9 JUMP JUMPDEST SWAP2 POP PUSH2 0x2641 DUP4 PUSH2 0x1CF9 JUMP JUMPDEST SWAP3 POP DUP3 PUSH2 0x2651 JUMPI PUSH2 0x2650 PUSH2 0x25FC JUMP JUMPDEST JUMPDEST DUP3 DUP3 DIV SWAP1 POP SWAP3 SWAP2 POP POP JUMP JUMPDEST PUSH32 0x6D696E696D756D2071756F72756E207265717569726564000000000000000000 PUSH1 0x0 DUP3 ADD MSTORE POP JUMP JUMPDEST PUSH1 0x0 PUSH2 0x2692 PUSH1 0x17 DUP4 PUSH2 0x1D76 JUMP JUMPDEST SWAP2 POP PUSH2 0x269D DUP3 PUSH2 0x265C JUMP JUMPDEST PUSH1 0x20 DUP3 ADD SWAP1 POP SWAP2 SWAP1 POP JUMP JUMPDEST PUSH1 0x0 PUSH1 0x20 DUP3 ADD SWAP1 POP DUP2 DUP2 SUB PUSH1 0x0 DUP4 ADD MSTORE PUSH2 0x26C1 DUP2 PUSH2 0x2685 JUMP JUMPDEST SWAP1 POP SWAP2 SWAP1 POP JUMP JUMPDEST PUSH32 0x616C726561647920657865637574656400000000000000000000000000000000 PUSH1 0x0 DUP3 ADD MSTORE POP JUMP JUMPDEST PUSH1 0x0 PUSH2 0x26FE PUSH1 0x10 DUP4 PUSH2 0x1D76 JUMP JUMPDEST SWAP2 POP PUSH2 0x2709 DUP3 PUSH2 0x26C8 JUMP JUMPDEST PUSH1 0x20 DUP3 ADD SWAP1 POP SWAP2 SWAP1 POP JUMP JUMPDEST PUSH1 0x0 PUSH1 0x20 DUP3 ADD SWAP1 POP DUP2 DUP2 SUB PUSH1 0x0 DUP4 ADD MSTORE PUSH2 0x272D DUP2 PUSH2 0x26F1 JUMP JUMPDEST SWAP1 POP SWAP2 SWAP1 POP JUMP JUMPDEST PUSH32 0x796F7520617265206E6F7420616C6C6F77656420746F20776974686472617700 PUSH1 0x0 DUP3 ADD MSTORE POP JUMP JUMPDEST PUSH1 0x0 PUSH2 0x276A PUSH1 0x1F DUP4 PUSH2 0x1D76 JUMP JUMPDEST SWAP2 POP PUSH2 0x2775 DUP3 PUSH2 0x2734 JUMP JUMPDEST PUSH1 0x20 DUP3 ADD SWAP1 POP SWAP2 SWAP1 POP JUMP JUMPDEST PUSH1 0x0 PUSH1 0x20 DUP3 ADD SWAP1 POP DUP2 DUP2 SUB PUSH1 0x0 DUP4 ADD MSTORE PUSH2 0x2799 DUP2 PUSH2 0x275D JUMP JUMPDEST SWAP1 POP SWAP2 SWAP1 POP JUMP JUMPDEST PUSH1 0x0 PUSH2 0x27AB DUP3 PUSH2 0x1CF9 JUMP JUMPDEST SWAP2 POP PUSH2 0x27B6 DUP4 PUSH2 0x1CF9 JUMP JUMPDEST SWAP3 POP DUP3 DUP3 SUB SWAP1 POP DUP2 DUP2 GT ISZERO PUSH2 0x27CE JUMPI PUSH2 0x27CD PUSH2 0x258B JUMP JUMPDEST JUMPDEST SWAP3 SWAP2 POP POP JUMP JUMPDEST PUSH32 0x4E487B7100000000000000000000000000000000000000000000000000000000 PUSH1 0x0 MSTORE PUSH1 0x32 PUSH1 0x4 MSTORE PUSH1 0x24 PUSH1 0x0 REVERT JUMPDEST PUSH1 0x0 PUSH2 0x280E DUP3 PUSH2 0x1CF9 JUMP JUMPDEST SWAP2 POP PUSH32 0xFFFFFFFFFFFFFFFFFFFFFFFFFFFFFFFFFFFFFFFFFFFFFFFFFFFFFFFFFFFFFFFF DUP3 SUB PUSH2 0x2840 JUMPI PUSH2 0x283F PUSH2 0x258B JUMP JUMPDEST JUMPDEST PUSH1 0x1 DUP3 ADD SWAP1 POP SWAP2 SWAP1 POP JUMP JUMPDEST PUSH32 0x796F7520617265206E6F7420616E20696E766573746F72000000000000000000 PUSH1 0x0 DUP3 ADD MSTORE POP JUMP JUMPDEST PUSH1 0x0 PUSH2 0x2881 PUSH1 0x17 DUP4 PUSH2 0x1D76 JUMP JUMPDEST SWAP2 POP PUSH2 0x288C DUP3 PUSH2 0x284B JUMP JUMPDEST PUSH1 0x20 DUP3 ADD SWAP1 POP SWAP2 SWAP1 POP JUMP JUMPDEST PUSH1 0x0 PUSH1 0x20 DUP3 ADD SWAP1 POP DUP2 DUP2 SUB PUSH1 0x0 DUP4 ADD MSTORE PUSH2 0x28B0 DUP2 PUSH2 0x2874 JUMP JUMPDEST SWAP1 POP SWAP2 SWAP1 POP JUMP JUMPDEST PUSH32 0x796F7520646F206E6F7420686176652073756666696369656E74207368617265 PUSH1 0x0 DUP3 ADD MSTORE PUSH32 0x7300000000000000000000000000000000000000000000000000000000000000 PUSH1 0x20 DUP3 ADD MSTORE POP JUMP JUMPDEST PUSH1 0x0 PUSH2 0x2913 PUSH1 0x21 DUP4 PUSH2 0x1D76 JUMP JUMPDEST SWAP2 POP PUSH2 0x291E DUP3 PUSH2 0x28B7 JUMP JUMPDEST PUSH1 0x40 DUP3 ADD SWAP1 POP SWAP2 SWAP1 POP JUMP JUMPDEST PUSH1 0x0 PUSH1 0x20 DUP3 ADD SWAP1 POP DUP2 DUP2 SUB PUSH1 0x0 DUP4 ADD MSTORE PUSH2 0x2942 DUP2 PUSH2 0x2906 JUMP JUMPDEST SWAP1 POP SWAP2 SWAP1 POP JUMP JUMPDEST PUSH32 0x6E6F2073756666696369656E742066756E6420617661696C61626C6500000000 PUSH1 0x0 DUP3 ADD MSTORE POP JUMP JUMPDEST PUSH1 0x0 PUSH2 0x297F PUSH1 0x1C DUP4 PUSH2 0x1D76 JUMP JUMPDEST SWAP2 POP PUSH2 0x298A DUP3 PUSH2 0x2949 JUMP JUMPDEST PUSH1 0x20 DUP3 ADD SWAP1 POP SWAP2 SWAP1 POP JUMP JUMPDEST PUSH1 0x0 PUSH1 0x20 DUP3 ADD SWAP1 POP DUP2 DUP2 SUB PUSH1 0x0 DUP4 ADD MSTORE PUSH2 0x29AE DUP2 PUSH2 0x2972 JUMP JUMPDEST SWAP1 POP SWAP2 SWAP1 POP JUMP JUMPDEST PUSH1 0x0 PUSH2 0x29C0 DUP3 PUSH2 0x1CF9 JUMP JUMPDEST SWAP2 POP PUSH2 0x29CB DUP4 PUSH2 0x1CF9 JUMP JUMPDEST SWAP3 POP DUP3 DUP3 ADD SWAP1 POP DUP1 DUP3 GT ISZERO PUSH2 0x29E3 JUMPI PUSH2 0x29E2 PUSH2 0x258B JUMP JUMPDEST JUMPDEST SWAP3 SWAP2 POP POP JUMP JUMPDEST PUSH32 0x636F6E747269627574696F6E2074696D6520656E647300000000000000000000 PUSH1 0x0 DUP3 ADD MSTORE POP JUMP JUMPDEST PUSH1 0x0 PUSH2 0x2A1F PUSH1 0x16 DUP4 PUSH2 0x1D76 JUMP JUMPDEST SWAP2 POP PUSH2 0x2A2A DUP3 PUSH2 0x29E9 JUMP JUMPDEST PUSH1 0x20 DUP3 ADD SWAP1 POP SWAP2 SWAP1 POP JUMP JUMPDEST PUSH1 0x0 PUSH1 0x20 DUP3 ADD SWAP1 POP DUP2 DUP2 SUB PUSH1 0x0 DUP4 ADD MSTORE PUSH2 0x2A4E DUP2 PUSH2 0x2A12 JUMP JUMPDEST SWAP1 POP SWAP2 SWAP1 POP JUMP JUMPDEST PUSH32 0x636F6E747269627574696F6E20616D6F756E742073686F756C64206265206772 PUSH1 0x0 DUP3 ADD MSTORE PUSH32 0x65746572207468616E2030000000000000000000000000000000000000000000 PUSH1 0x20 DUP3 ADD MSTORE POP JUMP JUMPDEST PUSH1 0x0 PUSH2 0x2AB1 PUSH1 0x2B DUP4 PUSH2 0x1D76 JUMP JUMPDEST SWAP2 POP PUSH2 0x2ABC DUP3 PUSH2 0x2A55 JUMP JUMPDEST PUSH1 0x40 DUP3 ADD SWAP1 POP SWAP2 SWAP1 POP JUMP JUMPDEST PUSH1 0x0 PUSH1 0x20 DUP3 ADD SWAP1 POP DUP2 DUP2 SUB PUSH1 0x0 DUP4 ADD MSTORE PUSH2 0x2AE0 DUP2 PUSH2 0x2AA4 JUMP JUMPDEST SWAP1 POP SWAP2 SWAP1 POP JUMP JUMPDEST PUSH32 0x6E6F2073756666696369656E742066756E647320617661696C61626C65000000 PUSH1 0x0 DUP3 ADD MSTORE POP JUMP JUMPDEST PUSH1 0x0 PUSH2 0x2B1D PUSH1 0x1D DUP4 PUSH2 0x1D76 JUMP JUMPDEST SWAP2 POP PUSH2 0x2B28 DUP3 PUSH2 0x2AE7 JUMP JUMPDEST PUSH1 0x20 DUP3 ADD SWAP1 POP SWAP2 SWAP1 POP JUMP JUMPDEST PUSH1 0x0 PUSH1 0x20 DUP3 ADD SWAP1 POP DUP2 DUP2 SUB PUSH1 0x0 DUP4 ADD MSTORE PUSH2 0x2B4C DUP2 PUSH2 0x2B10 JUMP JUMPDEST SWAP1 POP SWAP2 SWAP1 POP JUMP JUMPDEST PUSH1 0x0 DUP2 SWAP1 POP DUP2 PUSH1 0x0 MSTORE PUSH1 0x20 PUSH1 0x0 KECCAK256 SWAP1 POP SWAP2 SWAP1 POP JUMP JUMPDEST PUSH1 0x0 PUSH1 0x20 PUSH1 0x1F DUP4 ADD DIV SWAP1 POP SWAP2 SWAP1 POP JUMP JUMPDEST PUSH1 0x0 DUP3 DUP3 SHL SWAP1 POP SWAP3 SWAP2 POP POP JUMP JUMPDEST PUSH1 0x0 PUSH1 0x8 DUP4 MUL PUSH2 0x2BB5 PUSH32 0xFFFFFFFFFFFFFFFFFFFFFFFFFFFFFFFFFFFFFFFFFFFFFFFFFFFFFFFFFFFFFFFF DUP3 PUSH2 0x2B78 JUMP JUMPDEST PUSH2 0x2BBF DUP7 DUP4 PUSH2 0x2B78 JUMP JUMPDEST SWAP6 POP DUP1 NOT DUP5 AND SWAP4 POP DUP1 DUP7 AND DUP5 OR SWAP3 POP POP POP SWAP4 SWAP3 POP POP POP JUMP JUMPDEST PUSH1 0x0 DUP2 SWAP1 POP SWAP2 SWAP1 POP JUMP JUMPDEST PUSH1 0x0 PUSH2 0x2BFC PUSH2 0x2BF7 PUSH2 0x2BF2 DUP5 PUSH2 0x1CF9 JUMP JUMPDEST PUSH2 0x2BD7 JUMP JUMPDEST PUSH2 0x1CF9 JUMP JUMPDEST SWAP1 POP SWAP2 SWAP1 POP JUMP JUMPDEST PUSH1 0x0 DUP2 SWAP1 POP SWAP2 SWAP1 POP JUMP JUMPDEST PUSH2 0x2C16 DUP4 PUSH2 0x2BE1 JUMP JUMPDEST PUSH2 0x2C2A PUSH2 0x2C22 DUP3 PUSH2 0x2C03 JUMP JUMPDEST DUP5 DUP5 SLOAD PUSH2 0x2B85 JUMP JUMPDEST DUP3 SSTORE POP POP POP POP JUMP JUMPDEST PUSH1 0x0 SWAP1 JUMP JUMPDEST PUSH2 0x2C3F PUSH2 0x2C32 JUMP JUMPDEST PUSH2 0x2C4A DUP2 DUP5 DUP5 PUSH2 0x2C0D JUMP JUMPDEST POP POP POP JUMP JUMPDEST JUMPDEST DUP2 DUP2 LT ISZERO PUSH2 0x2C6E JUMPI PUSH2 0x2C63 PUSH1 0x0 DUP3 PUSH2 0x2C37 JUMP JUMPDEST PUSH1 0x1 DUP2 ADD SWAP1 POP PUSH2 0x2C50 JUMP JUMPDEST POP POP JUMP JUMPDEST PUSH1 0x1F DUP3 GT ISZERO PUSH2 0x2CB3 JUMPI PUSH2 0x2C84 DUP2 PUSH2 0x2B53 JUMP JUMPDEST PUSH2 0x2C8D DUP5 PUSH2 0x2B68 JUMP JUMPDEST DUP2 ADD PUSH1 0x20 DUP6 LT ISZERO PUSH2 0x2C9C JUMPI DUP2 SWAP1 POP JUMPDEST PUSH2 0x2CB0 PUSH2 0x2CA8 DUP6 PUSH2 0x2B68 JUMP JUMPDEST DUP4 ADD DUP3 PUSH2 0x2C4F JUMP JUMPDEST POP POP JUMPDEST POP POP POP JUMP JUMPDEST PUSH1 0x0 DUP3 DUP3 SHR SWAP1 POP SWAP3 SWAP2 POP POP JUMP JUMPDEST PUSH1 0x0 PUSH2 0x2CD6 PUSH1 0x0 NOT DUP5 PUSH1 0x8 MUL PUSH2 0x2CB8 JUMP JUMPDEST NOT DUP1 DUP4 AND SWAP2 POP POP SWAP3 SWAP2 POP POP JUMP JUMPDEST PUSH1 0x0 PUSH2 0x2CEF DUP4 DUP4 PUSH2 0x2CC5 JUMP JUMPDEST SWAP2 POP DUP3 PUSH1 0x2 MUL DUP3 OR SWAP1 POP SWAP3 SWAP2 POP POP JUMP JUMPDEST PUSH2 0x2D08 DUP3 PUSH2 0x1D6B JUMP JUMPDEST PUSH8 0xFFFFFFFFFFFFFFFF DUP2 GT ISZERO PUSH2 0x2D21 JUMPI PUSH2 0x2D20 PUSH2 0x21D9 JUMP JUMPDEST JUMPDEST PUSH2 0x2D2B DUP3 SLOAD PUSH2 0x24EE JUMP JUMPDEST PUSH2 0x2D36 DUP3 DUP3 DUP6 PUSH2 0x2C72 JUMP JUMPDEST PUSH1 0x0 PUSH1 0x20 SWAP1 POP PUSH1 0x1F DUP4 GT PUSH1 0x1 DUP2 EQ PUSH2 0x2D69 JUMPI PUSH1 0x0 DUP5 ISZERO PUSH2 0x2D57 JUMPI DUP3 DUP8 ADD MLOAD SWAP1 POP JUMPDEST PUSH2 0x2D61 DUP6 DUP3 PUSH2 0x2CE3 JUMP JUMPDEST DUP7 SSTORE POP PUSH2 0x2DC9 JUMP JUMPDEST PUSH1 0x1F NOT DUP5 AND PUSH2 0x2D77 DUP7 PUSH2 0x2B53 JUMP JUMPDEST PUSH1 0x0 JUMPDEST DUP3 DUP2 LT ISZERO PUSH2 0x2D9F JUMPI DUP5 DUP10 ADD MLOAD DUP3 SSTORE PUSH1 0x1 DUP3 ADD SWAP2 POP PUSH1 0x20 DUP6 ADD SWAP5 POP PUSH1 0x20 DUP2 ADD SWAP1 POP PUSH2 0x2D7A JUMP JUMPDEST DUP7 DUP4 LT ISZERO PUSH2 0x2DBC JUMPI DUP5 DUP10 ADD MLOAD PUSH2 0x2DB8 PUSH1 0x1F DUP10 AND DUP3 PUSH2 0x2CC5 JUMP JUMPDEST DUP4 SSTORE POP JUMPDEST PUSH1 0x1 PUSH1 0x2 DUP9 MUL ADD DUP9 SSTORE POP POP POP JUMPDEST POP POP POP POP POP POP JUMP JUMPDEST PUSH32 0x796F75206861766520616C726561647920766F74656420666F72207468697320 PUSH1 0x0 DUP3 ADD MSTORE PUSH32 0x70726F706F73616C000000000000000000000000000000000000000000000000 PUSH1 0x20 DUP3 ADD MSTORE POP JUMP JUMPDEST PUSH1 0x0 PUSH2 0x2E2D PUSH1 0x28 DUP4 PUSH2 0x1D76 JUMP JUMPDEST SWAP2 POP PUSH2 0x2E38 DUP3 PUSH2 0x2DD1 JUMP JUMPDEST PUSH1 0x40 DUP3 ADD SWAP1 POP SWAP2 SWAP1 POP JUMP JUMPDEST PUSH1 0x0 PUSH1 0x20 DUP3 ADD SWAP1 POP DUP2 DUP2 SUB PUSH1 0x0 DUP4 ADD MSTORE PUSH2 0x2E5C DUP2 PUSH2 0x2E20 JUMP JUMPDEST SWAP1 POP SWAP2 SWAP1 POP JUMP JUMPDEST PUSH32 0x766F74696E672074696D6520656E64656420666F7220746869732070726F706F PUSH1 0x0 DUP3 ADD MSTORE PUSH32 0x73616C0000000000000000000000000000000000000000000000000000000000 PUSH1 0x20 DUP3 ADD MSTORE POP JUMP JUMPDEST PUSH1 0x0 PUSH2 0x2EBF PUSH1 0x23 DUP4 PUSH2 0x1D76 JUMP JUMPDEST SWAP2 POP PUSH2 0x2ECA DUP3 PUSH2 0x2E63 JUMP JUMPDEST PUSH1 0x40 DUP3 ADD SWAP1 POP SWAP2 SWAP1 POP JUMP JUMPDEST PUSH1 0x0 PUSH1 0x20 DUP3 ADD SWAP1 POP DUP2 DUP2 SUB PUSH1 0x0 DUP4 ADD MSTORE PUSH2 0x2EEE DUP2 PUSH2 0x2EB2 JUMP JUMPDEST SWAP1 POP SWAP2 SWAP1 POP JUMP JUMPDEST PUSH32 0x696E73756666696369656E7420616D6F756E7400000000000000000000000000 PUSH1 0x0 DUP3 ADD MSTORE POP JUMP JUMPDEST PUSH1 0x0 PUSH2 0x2F2B PUSH1 0x13 DUP4 PUSH2 0x1D76 JUMP JUMPDEST SWAP2 POP PUSH2 0x2F36 DUP3 PUSH2 0x2EF5 JUMP JUMPDEST PUSH1 0x20 DUP3 ADD SWAP1 POP SWAP2 SWAP1 POP JUMP JUMPDEST PUSH1 0x0 PUSH1 0x20 DUP3 ADD SWAP1 POP DUP2 DUP2 SUB PUSH1 0x0 DUP4 ADD MSTORE PUSH2 0x2F5A DUP2 PUSH2 0x2F1E JUMP JUMPDEST SWAP1 POP SWAP2 SWAP1 POP JUMP INVALID LOG2 PUSH5 0x6970667358 0x22 SLT KECCAK256 SHR 0xB1 DUP7 0x1F PUSH22 0x389843F507CE4F4E5FE0E3D09E514E7C2853511D25A8 PUSH3 0x36E417 0xD PUSH5 0x736F6C6343 STOP ADDMOD SGT STOP CALLER "},"methodIdentifiers":{"allow(address)":"ff9913e8","availableFunds()":"46fcff4c","contribution()":"50520b1f","createProposal(string,uint256,address)":"6ac1e01f","disallow(address)":"a9ed9cb8","executeProposal(uint256)":"0d61b519","investorList()":"a1f8adac","investorsList(uint256)":"2ccc8727","isInvestor(address)":"cee2a9cf","isVoted(address,uint256)":"8ee36f05","manager()":"481c6a75","nextProposalId()":"2ab09d14","numOfShares(address)":"6a907803","participationTimeEnd()":"f168e7c4","proposalList()":"44389524","proposals(uint256)":"013cf08b","quorum()":"1703a018","redeemShares(uint256)":"adba9804","totalShares()":"3a98ef39","transferShares(uint256,address)":"45579b1f","voteProposal(uint256)":"807896d5","voteTime()":"bcf93dd6","withdrawAllEther()":"31c91117","withdrawalStatus(address)":"059fc354"}}}}}