{
  "_format": "hh-sol-artifact-1",
  "contractName": "Dao",
  "sourceName": "client/Contracts/DAO.sol",
  "abi": [
    {
      "inputs": [
        {
          "internalType": "uint256",
          "name": "_participationTimeEnd",
          "type": "uint256"
        },
        {
          "internalType": "uint256",
          "name": "_voteTime",
          "type": "uint256"
        },
        {
          "internalType": "uint256",
          "name": "_quorum",
          "type": "uint256"
        }
      ],
      "stateMutability": "nonpayable",
      "type": "constructor"
    },
    {
      "inputs": [
        {
          "internalType": "address",
          "name": "to",
          "type": "address"
        }
      ],
      "name": "allow",
      "outputs": [],
      "stateMutability": "nonpayable",
      "type": "function"
    },
    {
      "inputs": [],
      "name": "availableFunds",
      "outputs": [
        {
          "internalType": "uint256",
          "name": "",
          "type": "uint256"
        }
      ],
      "stateMutability": "view",
      "type": "function"
    },
    {
      "inputs": [],
      "name": "contribution",
      "outputs": [],
      "stateMutability": "payable",
      "type": "function"
    },
    {
      "inputs": [
        {
          "internalType": "string",
          "name": "projectName",
          "type": "string"
        },
        {
          "internalType": "uint256",
          "name": "amount",
          "type": "uint256"
        },
        {
          "internalType": "address payable",
          "name": "recepient",
          "type": "address"
        }
      ],
      "name": "createProposal",
      "outputs": [],
      "stateMutability": "nonpayable",
      "type": "function"
    },
    {
      "inputs": [
        {
          "internalType": "address",
          "name": "to",
          "type": "address"
        }
      ],
      "name": "disallow",
      "outputs": [],
      "stateMutability": "nonpayable",
      "type": "function"
    },
    {
      "inputs": [
        {
          "internalType": "uint256",
          "name": "proposalId",
          "type": "uint256"
        }
      ],
      "name": "executeProposal",
      "outputs": [],
      "stateMutability": "nonpayable",
      "type": "function"
    },
    {
      "inputs": [],
      "name": "investorList",
      "outputs": [
        {
          "internalType": "address[]",
          "name": "",
          "type": "address[]"
        }
      ],
      "stateMutability": "view",
      "type": "function"
    },
    {
      "inputs": [
        {
          "internalType": "uint256",
          "name": "",
          "type": "uint256"
        }
      ],
      "name": "investorsList",
      "outputs": [
        {
          "internalType": "address",
          "name": "",
          "type": "address"
        }
      ],
      "stateMutability": "view",
      "type": "function"
    },
    {
      "inputs": [
        {
          "internalType": "address",
          "name": "",
          "type": "address"
        }
      ],
      "name": "isInvestor",
      "outputs": [
        {
          "internalType": "bool",
          "name": "",
          "type": "bool"
        }
      ],
      "stateMutability": "view",
      "type": "function"
    },
    {
      "inputs": [
        {
          "internalType": "address",
          "name": "",
          "type": "address"
        },
        {
          "internalType": "uint256",
          "name": "",
          "type": "uint256"
        }
      ],
      "name": "isVoted",
      "outputs": [
        {
          "internalType": "bool",
          "name": "",
          "type": "bool"
        }
      ],
      "stateMutability": "view",
      "type": "function"
    },
    {
      "inputs": [],
      "name": "manager",
      "outputs": [
        {
          "internalType": "address",
          "name": "",
          "type": "address"
        }
      ],
      "stateMutability": "view",
      "type": "function"
    },
    {
      "inputs": [],
      "name": "nextProposalId",
      "outputs": [
        {
          "internalType": "uint256",
          "name": "",
          "type": "uint256"
        }
      ],
      "stateMutability": "view",
      "type": "function"
    },
    {
      "inputs": [
        {
          "internalType": "address",
          "name": "",
          "type": "address"
        }
      ],
      "name": "numOfShares",
      "outputs": [
        {
          "internalType": "uint256",
          "name": "",
          "type": "uint256"
        }
      ],
      "stateMutability": "view",
      "type": "function"
    },
    {
      "inputs": [],
      "name": "participationTimeEnd",
      "outputs": [
        {
          "internalType": "uint256",
          "name": "",
          "type": "uint256"
        }
      ],
      "stateMutability": "view",
      "type": "function"
    },
    {
      "inputs": [],
      "name": "proposalList",
      "outputs": [
        {
          "components": [
            {
              "internalType": "uint256",
              "name": "id",
              "type": "uint256"
            },
            {
              "internalType": "string",
              "name": "projectName",
              "type": "string"
            },
            {
              "internalType": "uint256",
              "name": "amount",
              "type": "uint256"
            },
            {
              "internalType": "address payable",
              "name": "recepient",
              "type": "address"
            },
            {
              "internalType": "uint256",
              "name": "votes",
              "type": "uint256"
            },
            {
              "internalType": "uint256",
              "name": "end",
              "type": "uint256"
            },
            {
              "internalType": "bool",
              "name": "isExecuted",
              "type": "bool"
            }
          ],
          "internalType": "struct Dao.proposal[]",
          "name": "",
          "type": "tuple[]"
        }
      ],
      "stateMutability": "view",
      "type": "function"
    },
    {
      "inputs": [
        {
          "internalType": "uint256",
          "name": "",
          "type": "uint256"
        }
      ],
      "name": "proposals",
      "outputs": [
        {
          "internalType": "uint256",
          "name": "id",
          "type": "uint256"
        },
        {
          "internalType": "string",
          "name": "projectName",
          "type": "string"
        },
        {
          "internalType": "uint256",
          "name": "amount",
          "type": "uint256"
        },
        {
          "internalType": "address payable",
          "name": "recepient",
          "type": "address"
        },
        {
          "internalType": "uint256",
          "name": "votes",
          "type": "uint256"
        },
        {
          "internalType": "uint256",
          "name": "end",
          "type": "uint256"
        },
        {
          "internalType": "bool",
          "name": "isExecuted",
          "type": "bool"
        }
      ],
      "stateMutability": "view",
      "type": "function"
    },
    {
      "inputs": [],
      "name": "quorum",
      "outputs": [
        {
          "internalType": "uint256",
          "name": "",
          "type": "uint256"
        }
      ],
      "stateMutability": "view",
      "type": "function"
    },
    {
      "inputs": [
        {
          "internalType": "uint256",
          "name": "amount",
          "type": "uint256"
        }
      ],
      "name": "redeemShares",
      "outputs": [],
      "stateMutability": "nonpayable",
      "type": "function"
    },
    {
      "inputs": [],
      "name": "totalShares",
      "outputs": [
        {
          "internalType": "uint256",
          "name": "",
          "type": "uint256"
        }
      ],
      "stateMutability": "view",
      "type": "function"
    },
    {
      "inputs": [
        {
          "internalType": "uint256",
          "name": "amount",
          "type": "uint256"
        },
        {
          "internalType": "address",
          "name": "to",
          "type": "address"
        }
      ],
      "name": "transferShares",
      "outputs": [],
      "stateMutability": "nonpayable",
      "type": "function"
    },
    {
      "inputs": [
        {
          "internalType": "uint256",
          "name": "proposalId",
          "type": "uint256"
        }
      ],
      "name": "voteProposal",
      "outputs": [],
      "stateMutability": "nonpayable",
      "type": "function"
    },
    {
      "inputs": [],
      "name": "voteTime",
      "outputs": [
        {
          "internalType": "uint256",
          "name": "",
          "type": "uint256"
        }
      ],
      "stateMutability": "view",
      "type": "function"
    },
    {
      "inputs": [],
      "name": "withdrawAllEther",
      "outputs": [],
      "stateMutability": "nonpayable",
      "type": "function"
    },
    {
      "inputs": [
        {
          "internalType": "address",
          "name": "",
          "type": "address"
        }
      ],
      "name": "withdrawalStatus",
      "outputs": [
        {
          "internalType": "bool",
          "name": "",
          "type": "bool"
        }
      ],
      "stateMutability": "view",
      "type": "function"
    }
  ],
  "bytecode": "0x60806040523480156200001157600080fd5b50604051620031793803806200317983398181016040528101906200003791906200010c565b60008111801562000049575060648111155b6200005357600080fd5b824262000061919062000197565b600881905550814262000075919062000197565b600a8190555080600b8190555033600c60006101000a81548173ffffffffffffffffffffffffffffffffffffffff021916908373ffffffffffffffffffffffffffffffffffffffff160217905550505050620001d2565b600080fd5b6000819050919050565b620000e681620000d1565b8114620000f257600080fd5b50565b6000815190506200010681620000db565b92915050565b600080600060608486031215620001285762000127620000cc565b5b60006200013886828701620000f5565b93505060206200014b86828701620000f5565b92505060406200015e86828701620000f5565b9150509250925092565b7f4e487b7100000000000000000000000000000000000000000000000000000000600052601160045260246000fd5b6000620001a482620000d1565b9150620001b183620000d1565b9250828201905080821115620001cc57620001cb62000168565b5b92915050565b612f9780620001e26000396000f3fe60806040526004361061014b5760003560e01c806350520b1f116100b6578063a9ed9cb81161006f578063a9ed9cb814610479578063adba9804146104a2578063bcf93dd6146104cb578063cee2a9cf146104f6578063f168e7c414610533578063ff9913e81461055e5761014b565b806350520b1f146103785780636a907803146103825780636ac1e01f146103bf578063807896d5146103e85780638ee36f0514610411578063a1f8adac1461044e5761014b565b806331c911171161010857806331c911171461028c5780633a98ef39146102a357806344389524146102ce57806345579b1f146102f957806346fcff4c14610322578063481c6a751461034d5761014b565b8063013cf08b14610150578063059fc354146101935780630d61b519146101d05780631703a018146101f95780632ab09d14146102245780632ccc87271461024f575b600080fd5b34801561015c57600080fd5b5061017760048036038101906101729190611d2f565b610587565b60405161018a9796959493929190611e57565b60405180910390f35b34801561019f57600080fd5b506101ba60048036038101906101b59190611f0b565b61067e565b6040516101c79190611f38565b60405180910390f35b3480156101dc57600080fd5b506101f760048036038101906101f29190611d2f565b61069e565b005b34801561020557600080fd5b5061020e610894565b60405161021b9190611f53565b60405180910390f35b34801561023057600080fd5b5061023961089a565b6040516102469190611f53565b60405180910390f35b34801561025b57600080fd5b5061027660048036038101906102719190611d2f565b6108a0565b6040516102839190611f7d565b60405180910390f35b34801561029857600080fd5b506102a16108df565b005b3480156102af57600080fd5b506102b8610a59565b6040516102c59190611f53565b60405180910390f35b3480156102da57600080fd5b506102e3610a5f565b6040516102f0919061216d565b60405180910390f35b34801561030557600080fd5b50610320600480360381019061031b919061218f565b610c56565b005b34801561032e57600080fd5b50610337610ff4565b6040516103449190611f53565b60405180910390f35b34801561035957600080fd5b50610362610ffa565b60405161036f9190611f7d565b60405180910390f35b610380611020565b005b34801561038e57600080fd5b506103a960048036038101906103a49190611f0b565b6111ec565b6040516103b69190611f53565b60405180910390f35b3480156103cb57600080fd5b506103e660048036038101906103e19190612330565b611204565b005b3480156103f457600080fd5b5061040f600480360381019061040a9190611d2f565b611411565b005b34801561041d57600080fd5b506104386004803603810190610433919061239f565b611678565b6040516104459190611f38565b60405180910390f35b34801561045a57600080fd5b506104636116a7565b604051610470919061249d565b60405180910390f35b34801561048557600080fd5b506104a0600480360381019061049b9190611f0b565b611735565b005b3480156104ae57600080fd5b506104c960048036038101906104c49190611d2f565b611820565b005b3480156104d757600080fd5b506104e0611ad1565b6040516104ed9190611f53565b60405180910390f35b34801561050257600080fd5b5061051d60048036038101906105189190611f0b565b611ad7565b60405161052a9190611f38565b60405180910390f35b34801561053f57600080fd5b50610548611af7565b6040516105559190611f53565b60405180910390f35b34801561056a57600080fd5b5061058560048036038101906105809190611f0b565b611afd565b005b60046020528060005260406000206000915090508060000154908060010180546105b0906124ee565b80601f01602080910402602001604051908101604052809291908181526020018280546105dc906124ee565b80156106295780601f106105fe57610100808354040283529160200191610629565b820191906000526020600020905b81548152906001019060200180831161060c57829003601f168201915b5050505050908060020154908060030160009054906101000a900473ffffffffffffffffffffffffffffffffffffffff16908060040154908060050154908060060160009054906101000a900460ff16905087565b60036020528060005260406000206000915054906101000a900460ff1681565b3373ffffffffffffffffffffffffffffffffffffffff16600c60009054906101000a900473ffffffffffffffffffffffffffffffffffffffff1673ffffffffffffffffffffffffffffffffffffffff161461072e576040517f08c379a00000000000000000000000000000000000000000000000000000000081526004016107259061256b565b60405180910390fd5b600b546006546064600460008581526020019081526020016000206004015461075791906125ba565b610761919061262b565b10156107a2576040517f08c379a0000000000000000000000000000000000000000000000000000000008152600401610799906126a8565b60405180910390fd5b600015156004600083815260200190815260200160002060060160009054906101000a900460ff1615151461080c576040517f08c379a000000000000000000000000000000000000000000000000000000000815260040161080390612714565b60405180910390fd5b60016004600083815260200190815260200160002060060160006101000a81548160ff02191690831515021790555061089160046000838152602001908152602001600020600201546004600084815260200190815260200160002060030160009054906101000a900473ffffffffffffffffffffffffffffffffffffffff16611be8565b50565b600b5481565b60095481565b600581815481106108b057600080fd5b906000526020600020016000915054906101000a900473ffffffffffffffffffffffffffffffffffffffff1681565b60011515600360003373ffffffffffffffffffffffffffffffffffffffff1673ffffffffffffffffffffffffffffffffffffffff16815260200190815260200160002060009054906101000a900460ff16151514610972576040517f08c379a000000000000000000000000000000000000000000000000000000000815260040161096990612780565b60405180910390fd5b6000600160003373ffffffffffffffffffffffffffffffffffffffff1673ffffffffffffffffffffffffffffffffffffffff1681526020019081526020016000208190555060008060003373ffffffffffffffffffffffffffffffffffffffff1673ffffffffffffffffffffffffffffffffffffffff16815260200190815260200160002060006101000a81548160ff021916908315150217905550610a57600160003373ffffffffffffffffffffffffffffffffffffffff1673ffffffffffffffffffffffffffffffffffffffff1681526020019081526020016000205433611be8565b565b60065481565b606060006001600954610a7291906127a0565b67ffffffffffffffff811115610a8b57610a8a6121d9565b5b604051908082528060200260200182016040528015610ac457816020015b610ab1611c90565b815260200190600190039081610aa95790505b50905060005b600954811015610c4e57600460008281526020019081526020016000206040518060e001604052908160008201548152602001600182018054610b0c906124ee565b80601f0160208091040260200160405190810160405280929190818152602001828054610b38906124ee565b8015610b855780601f10610b5a57610100808354040283529160200191610b85565b820191906000526020600020905b815481529060010190602001808311610b6857829003601f168201915b50505050508152602001600282015481526020016003820160009054906101000a900473ffffffffffffffffffffffffffffffffffffffff1673ffffffffffffffffffffffffffffffffffffffff1673ffffffffffffffffffffffffffffffffffffffff16815260200160048201548152602001600582015481526020016006820160009054906101000a900460ff161515151581525050828281518110610c3057610c2f6127d4565b5b60200260200101819052508080610c4690612803565b915050610aca565b508091505090565b600115156000803373ffffffffffffffffffffffffffffffffffffffff1673ffffffffffffffffffffffffffffffffffffffff16815260200190815260200160002060009054906101000a900460ff16151514610ce8576040517f08c379a0000000000000000000000000000000000000000000000000000000008152600401610cdf90612897565b60405180910390fd5b81600160003373ffffffffffffffffffffffffffffffffffffffff1673ffffffffffffffffffffffffffffffffffffffff168152602001908152602001600020541015610d6a576040517f08c379a0000000000000000000000000000000000000000000000000000000008152600401610d6190612929565b60405180910390fd5b816007541015610daf576040517f08c379a0000000000000000000000000000000000000000000000000000000008152600401610da690612995565b60405180910390fd5b81600160003373ffffffffffffffffffffffffffffffffffffffff1673ffffffffffffffffffffffffffffffffffffffff1681526020019081526020016000206000828254610dfe91906127a0565b925050819055506000600160003373ffffffffffffffffffffffffffffffffffffffff1673ffffffffffffffffffffffffffffffffffffffff1681526020019081526020016000205403610ea45760008060003373ffffffffffffffffffffffffffffffffffffffff1673ffffffffffffffffffffffffffffffffffffffff16815260200190815260200160002060006101000a81548160ff0219169083151502179055505b81600160008373ffffffffffffffffffffffffffffffffffffffff1673ffffffffffffffffffffffffffffffffffffffff1681526020019081526020016000206000828254610ef391906129b5565b92505081905550600015156000808373ffffffffffffffffffffffffffffffffffffffff1673ffffffffffffffffffffffffffffffffffffffff16815260200190815260200160002060009054906101000a900460ff16151503610fa95760016000808373ffffffffffffffffffffffffffffffffffffffff1673ffffffffffffffffffffffffffffffffffffffff16815260200190815260200160002060006101000a81548160ff0219169083151502179055505b8073ffffffffffffffffffffffffffffffffffffffff166108fc839081150290604051600060405180830381858888f19350505050158015610fef573d6000803e3d6000fd5b505050565b60075481565b600c60009054906101000a900473ffffffffffffffffffffffffffffffffffffffff1681565b426008541015611065576040517f08c379a000000000000000000000000000000000000000000000000000000000815260040161105c90612a35565b60405180910390fd5b600034116110a8576040517f08c379a000000000000000000000000000000000000000000000000000000000815260040161109f90612ac7565b60405180910390fd5b60016000803373ffffffffffffffffffffffffffffffffffffffff1673ffffffffffffffffffffffffffffffffffffffff16815260200190815260200160002060006101000a81548160ff02191690831515021790555034600160003373ffffffffffffffffffffffffffffffffffffffff1673ffffffffffffffffffffffffffffffffffffffff168152602001908152602001600020600082825461114e91906129b5565b92505081905550346006600082825461116791906129b5565b925050819055506005339080600181540180825580915050600190039060005260206000200160009091909190916101000a81548173ffffffffffffffffffffffffffffffffffffffff021916908373ffffffffffffffffffffffffffffffffffffffff16021790555034600760008282546111e391906129b5565b92505081905550565b60016020528060005260406000206000915090505481565b600115156000803373ffffffffffffffffffffffffffffffffffffffff1673ffffffffffffffffffffffffffffffffffffffff16815260200190815260200160002060009054906101000a900460ff16151514611296576040517f08c379a000000000000000000000000000000000000000000000000000000000815260040161128d90612897565b60405180910390fd5b6007548211156112db576040517f08c379a00000000000000000000000000000000000000000000000000000000081526004016112d290612b33565b60405180910390fd5b6040518060e0016040528060095481526020018481526020018381526020018273ffffffffffffffffffffffffffffffffffffffff16815260200160008152602001600a544261132b91906129b5565b81526020016000151581525060046000600954815260200190815260200160002060008201518160000155602082015181600101908161136b9190612cff565b506040820151816002015560608201518160030160006101000a81548173ffffffffffffffffffffffffffffffffffffffff021916908373ffffffffffffffffffffffffffffffffffffffff1602179055506080820151816004015560a0820151816005015560c08201518160060160006101000a81548160ff0219169083151502179055509050506009600081548092919061140790612803565b9190505550505050565b600115156000803373ffffffffffffffffffffffffffffffffffffffff1673ffffffffffffffffffffffffffffffffffffffff16815260200190815260200160002060009054906101000a900460ff161515146114a3576040517f08c379a000000000000000000000000000000000000000000000000000000000815260040161149a90612897565b60405180910390fd5b60001515600260003373ffffffffffffffffffffffffffffffffffffffff1673ffffffffffffffffffffffffffffffffffffffff168152602001908152602001600020600083815260200190815260200160002060009054906101000a900460ff16151514611547576040517f08c379a000000000000000000000000000000000000000000000000000000000815260040161153e90612e43565b60405180910390fd5b42600460008381526020019081526020016000206005015410156115a0576040517f08c379a000000000000000000000000000000000000000000000000000000000815260040161159790612ed5565b60405180910390fd5b6001600260003373ffffffffffffffffffffffffffffffffffffffff1673ffffffffffffffffffffffffffffffffffffffff168152602001908152602001600020600083815260200190815260200160002060006101000a81548160ff021916908315150217905550600160003373ffffffffffffffffffffffffffffffffffffffff1673ffffffffffffffffffffffffffffffffffffffff1681526020019081526020016000205460046000838152602001908152602001600020600401600082825461166e91906129b5565b9250508190555050565b60026020528160005260406000206020528060005260406000206000915091509054906101000a900460ff1681565b6060600580548060200260200160405190810160405280929190818152602001828054801561172b57602002820191906000526020600020905b8160009054906101000a900473ffffffffffffffffffffffffffffffffffffffff1673ffffffffffffffffffffffffffffffffffffffff16815260200190600101908083116116e1575b5050505050905090565b3373ffffffffffffffffffffffffffffffffffffffff16600c60009054906101000a900473ffffffffffffffffffffffffffffffffffffffff1673ffffffffffffffffffffffffffffffffffffffff16146117c5576040517f08c379a00000000000000000000000000000000000000000000000000000000081526004016117bc9061256b565b60405180910390fd5b6000600360008373ffffffffffffffffffffffffffffffffffffffff1673ffffffffffffffffffffffffffffffffffffffff16815260200190815260200160002060006101000a81548160ff02191690831515021790555050565b600115156000803373ffffffffffffffffffffffffffffffffffffffff1673ffffffffffffffffffffffffffffffffffffffff16815260200190815260200160002060009054906101000a900460ff161515146118b2576040517f08c379a00000000000000000000000000000000000000000000000000000000081526004016118a990612897565b60405180910390fd5b80600160003373ffffffffffffffffffffffffffffffffffffffff1673ffffffffffffffffffffffffffffffffffffffff168152602001908152602001600020541015611934576040517f08c379a000000000000000000000000000000000000000000000000000000000815260040161192b90612929565b60405180910390fd5b806007541015611979576040517f08c379a000000000000000000000000000000000000000000000000000000000815260040161197090612995565b60405180910390fd5b80600160003373ffffffffffffffffffffffffffffffffffffffff1673ffffffffffffffffffffffffffffffffffffffff16815260200190815260200160002060008282546119c891906127a0565b925050819055506000600160003373ffffffffffffffffffffffffffffffffffffffff1673ffffffffffffffffffffffffffffffffffffffff1681526020019081526020016000205403611a6e5760008060003373ffffffffffffffffffffffffffffffffffffffff1673ffffffffffffffffffffffffffffffffffffffff16815260200190815260200160002060006101000a81548160ff0219169083151502179055505b8060076000828254611a8091906127a0565b925050819055503373ffffffffffffffffffffffffffffffffffffffff166108fc829081150290604051600060405180830381858888f19350505050158015611acd573d6000803e3d6000fd5b5050565b600a5481565b60006020528060005260406000206000915054906101000a900460ff1681565b60085481565b3373ffffffffffffffffffffffffffffffffffffffff16600c60009054906101000a900473ffffffffffffffffffffffffffffffffffffffff1673ffffffffffffffffffffffffffffffffffffffff1614611b8d576040517f08c379a0000000000000000000000000000000000000000000000000000000008152600401611b849061256b565b60405180910390fd5b6001600360008373ffffffffffffffffffffffffffffffffffffffff1673ffffffffffffffffffffffffffffffffffffffff16815260200190815260200160002060006101000a81548160ff02191690831515021790555050565b6007548210611c2c576040517f08c379a0000000000000000000000000000000000000000000000000000000008152600401611c2390612f41565b60405180910390fd5b8160076000828254611c3e91906127a0565b925050819055508073ffffffffffffffffffffffffffffffffffffffff166108fc839081150290604051600060405180830381858888f19350505050158015611c8b573d6000803e3d6000fd5b505050565b6040518060e00160405280600081526020016060815260200160008152602001600073ffffffffffffffffffffffffffffffffffffffff16815260200160008152602001600081526020016000151581525090565b6000604051905090565b600080fd5b600080fd5b6000819050919050565b611d0c81611cf9565b8114611d1757600080fd5b50565b600081359050611d2981611d03565b92915050565b600060208284031215611d4557611d44611cef565b5b6000611d5384828501611d1a565b91505092915050565b611d6581611cf9565b82525050565b600081519050919050565b600082825260208201905092915050565b60005b83811015611da5578082015181840152602081019050611d8a565b60008484015250505050565b6000601f19601f8301169050919050565b6000611dcd82611d6b565b611dd78185611d76565b9350611de7818560208601611d87565b611df081611db1565b840191505092915050565b600073ffffffffffffffffffffffffffffffffffffffff82169050919050565b6000611e2682611dfb565b9050919050565b611e3681611e1b565b82525050565b60008115159050919050565b611e5181611e3c565b82525050565b600060e082019050611e6c600083018a611d5c565b8181036020830152611e7e8189611dc2565b9050611e8d6040830188611d5c565b611e9a6060830187611e2d565b611ea76080830186611d5c565b611eb460a0830185611d5c565b611ec160c0830184611e48565b98975050505050505050565b6000611ed882611dfb565b9050919050565b611ee881611ecd565b8114611ef357600080fd5b50565b600081359050611f0581611edf565b92915050565b600060208284031215611f2157611f20611cef565b5b6000611f2f84828501611ef6565b91505092915050565b6000602082019050611f4d6000830184611e48565b92915050565b6000602082019050611f686000830184611d5c565b92915050565b611f7781611ecd565b82525050565b6000602082019050611f926000830184611f6e565b92915050565b600081519050919050565b600082825260208201905092915050565b6000819050602082019050919050565b611fcd81611cf9565b82525050565b600082825260208201905092915050565b6000611fef82611d6b565b611ff98185611fd3565b9350612009818560208601611d87565b61201281611db1565b840191505092915050565b61202681611e1b565b82525050565b61203581611e3c565b82525050565b600060e0830160008301516120536000860182611fc4565b506020830151848203602086015261206b8282611fe4565b91505060408301516120806040860182611fc4565b506060830151612093606086018261201d565b5060808301516120a66080860182611fc4565b5060a08301516120b960a0860182611fc4565b5060c08301516120cc60c086018261202c565b508091505092915050565b60006120e3838361203b565b905092915050565b6000602082019050919050565b600061210382611f98565b61210d8185611fa3565b93508360208202850161211f85611fb4565b8060005b8581101561215b578484038952815161213c85826120d7565b9450612147836120eb565b925060208a01995050600181019050612123565b50829750879550505050505092915050565b6000602082019050818103600083015261218781846120f8565b905092915050565b600080604083850312156121a6576121a5611cef565b5b60006121b485828601611d1a565b92505060206121c585828601611ef6565b9150509250929050565b600080fd5b600080fd5b7f4e487b7100000000000000000000000000000000000000000000000000000000600052604160045260246000fd5b61221182611db1565b810181811067ffffffffffffffff821117156122305761222f6121d9565b5b80604052505050565b6000612243611ce5565b905061224f8282612208565b919050565b600067ffffffffffffffff82111561226f5761226e6121d9565b5b61227882611db1565b9050602081019050919050565b82818337600083830152505050565b60006122a76122a284612254565b612239565b9050828152602081018484840111156122c3576122c26121d4565b5b6122ce848285612285565b509392505050565b600082601f8301126122eb576122ea6121cf565b5b81356122fb848260208601612294565b91505092915050565b61230d81611e1b565b811461231857600080fd5b50565b60008135905061232a81612304565b92915050565b60008060006060848603121561234957612348611cef565b5b600084013567ffffffffffffffff81111561236757612366611cf4565b5b612373868287016122d6565b935050602061238486828701611d1a565b92505060406123958682870161231b565b9150509250925092565b600080604083850312156123b6576123b5611cef565b5b60006123c485828601611ef6565b92505060206123d585828601611d1a565b9150509250929050565b600081519050919050565b600082825260208201905092915050565b6000819050602082019050919050565b61241481611ecd565b82525050565b6000612426838361240b565b60208301905092915050565b6000602082019050919050565b600061244a826123df565b61245481856123ea565b935061245f836123fb565b8060005b83811015612490578151612477888261241a565b975061248283612432565b925050600181019050612463565b5085935050505092915050565b600060208201905081810360008301526124b7818461243f565b905092915050565b7f4e487b7100000000000000000000000000000000000000000000000000000000600052602260045260246000fd5b6000600282049050600182168061250657607f821691505b602082108103612519576125186124bf565b5b50919050565b7f796f7520617265206e6f742061206d616e616765720000000000000000000000600082015250565b6000612555601583611d76565b91506125608261251f565b602082019050919050565b6000602082019050818103600083015261258481612548565b9050919050565b7f4e487b7100000000000000000000000000000000000000000000000000000000600052601160045260246000fd5b60006125c582611cf9565b91506125d083611cf9565b92508282026125de81611cf9565b915082820484148315176125f5576125f461258b565b5b5092915050565b7f4e487b7100000000000000000000000000000000000000000000000000000000600052601260045260246000fd5b600061263682611cf9565b915061264183611cf9565b925082612651576126506125fc565b5b828204905092915050565b7f6d696e696d756d2071756f72756e207265717569726564000000000000000000600082015250565b6000612692601783611d76565b915061269d8261265c565b602082019050919050565b600060208201905081810360008301526126c181612685565b9050919050565b7f616c726561647920657865637574656400000000000000000000000000000000600082015250565b60006126fe601083611d76565b9150612709826126c8565b602082019050919050565b6000602082019050818103600083015261272d816126f1565b9050919050565b7f796f7520617265206e6f7420616c6c6f77656420746f20776974686472617700600082015250565b600061276a601f83611d76565b915061277582612734565b602082019050919050565b600060208201905081810360008301526127998161275d565b9050919050565b60006127ab82611cf9565b91506127b683611cf9565b92508282039050818111156127ce576127cd61258b565b5b92915050565b7f4e487b7100000000000000000000000000000000000000000000000000000000600052603260045260246000fd5b600061280e82611cf9565b91507fffffffffffffffffffffffffffffffffffffffffffffffffffffffffffffffff82036128405761283f61258b565b5b600182019050919050565b7f796f7520617265206e6f7420616e20696e766573746f72000000000000000000600082015250565b6000612881601783611d76565b915061288c8261284b565b602082019050919050565b600060208201905081810360008301526128b081612874565b9050919050565b7f796f7520646f206e6f7420686176652073756666696369656e7420736861726560008201527f7300000000000000000000000000000000000000000000000000000000000000602082015250565b6000612913602183611d76565b915061291e826128b7565b604082019050919050565b6000602082019050818103600083015261294281612906565b9050919050565b7f6e6f2073756666696369656e742066756e6420617661696c61626c6500000000600082015250565b600061297f601c83611d76565b915061298a82612949565b602082019050919050565b600060208201905081810360008301526129ae81612972565b9050919050565b60006129c082611cf9565b91506129cb83611cf9565b92508282019050808211156129e3576129e261258b565b5b92915050565b7f636f6e747269627574696f6e2074696d6520656e647300000000000000000000600082015250565b6000612a1f601683611d76565b9150612a2a826129e9565b602082019050919050565b60006020820190508181036000830152612a4e81612a12565b9050919050565b7f636f6e747269627574696f6e20616d6f756e742073686f756c6420626520677260008201527f65746572207468616e2030000000000000000000000000000000000000000000602082015250565b6000612ab1602b83611d76565b9150612abc82612a55565b604082019050919050565b60006020820190508181036000830152612ae081612aa4565b9050919050565b7f6e6f2073756666696369656e742066756e647320617661696c61626c65000000600082015250565b6000612b1d601d83611d76565b9150612b2882612ae7565b602082019050919050565b60006020820190508181036000830152612b4c81612b10565b9050919050565b60008190508160005260206000209050919050565b60006020601f8301049050919050565b600082821b905092915050565b600060088302612bb57fffffffffffffffffffffffffffffffffffffffffffffffffffffffffffffffff82612b78565b612bbf8683612b78565b95508019841693508086168417925050509392505050565b6000819050919050565b6000612bfc612bf7612bf284611cf9565b612bd7565b611cf9565b9050919050565b6000819050919050565b612c1683612be1565b612c2a612c2282612c03565b848454612b85565b825550505050565b600090565b612c3f612c32565b612c4a818484612c0d565b505050565b5b81811015612c6e57612c63600082612c37565b600181019050612c50565b5050565b601f821115612cb357612c8481612b53565b612c8d84612b68565b81016020851015612c9c578190505b612cb0612ca885612b68565b830182612c4f565b50505b505050565b600082821c905092915050565b6000612cd660001984600802612cb8565b1980831691505092915050565b6000612cef8383612cc5565b9150826002028217905092915050565b612d0882611d6b565b67ffffffffffffffff811115612d2157612d206121d9565b5b612d2b82546124ee565b612d36828285612c72565b600060209050601f831160018114612d695760008415612d57578287015190505b612d618582612ce3565b865550612dc9565b601f198416612d7786612b53565b60005b82811015612d9f57848901518255600182019150602085019450602081019050612d7a565b86831015612dbc5784890151612db8601f891682612cc5565b8355505b6001600288020188555050505b505050505050565b7f796f75206861766520616c726561647920766f74656420666f7220746869732060008201527f70726f706f73616c000000000000000000000000000000000000000000000000602082015250565b6000612e2d602883611d76565b9150612e3882612dd1565b604082019050919050565b60006020820190508181036000830152612e5c81612e20565b9050919050565b7f766f74696e672074696d6520656e64656420666f7220746869732070726f706f60008201527f73616c0000000000000000000000000000000000000000000000000000000000602082015250565b6000612ebf602383611d76565b9150612eca82612e63565b604082019050919050565b60006020820190508181036000830152612eee81612eb2565b9050919050565b7f696e73756666696369656e7420616d6f756e7400000000000000000000000000600082015250565b6000612f2b601383611d76565b9150612f3682612ef5565b602082019050919050565b60006020820190508181036000830152612f5a81612f1e565b905091905056fea26469706673582212201cb1861f75389843f507ce4f4e5fe0e3d09e514e7c2853511d25a86236e4170d64736f6c63430008130033",
  "linkReferences": {},
  "deployedLinkReferences": {}
}